:0200000480007A
:100000006F00000B1300000013000000130000003D
:100010001300000013000000130000001300000094
:10002000232E11FE232C51FE232A61FE232871FE6C
:100030002326A1FE2324B1FE2322C1FE2320D1FECC
:10004000232EE1FC232CF1FC232A01FD232811FDA2
:100050002326C1FD2324D1FD2322E1FD2320F1FD30
:10006000130101FCEF00C0128320C103832281032E
:1000700003234103832301030325C1028325810256
:1000800003264102832601020327C1018327810140
:100090000328410183280101032EC100832E810022
:1000A000032F4100832F010013010104730020304E
:1000B0009711000093810195170100C0130181740D
:1000C0001705000013050514970500009385851397
:1000D0006308B50023200500130545006FF05FFF9E
:1000E00017050000130505121301C1FF9705000055
:1000F00093854511630EB500832605001305450061
:100100002320A100E7800600032501006FF01FFEF9
:1001100013014100371500001305058873104530A1
:10012000372500001305858073100530EF00000CA3
:040130006F0000005C
:10013400B70700F083A747001307F00F93F7F70FF3
:100144006384E704B7C50000370700F01306F00F17
:1001540093870535130000009387F7FFE39C07FEA0
:10016400832647008327470093F606F093871700FA
:1001740093F7F70FB3E7D7002322F700832747004D
:1001840093F7F70FE396C7FC67800000B70700F00A
:1001940083A747001307F00F93F7F70F6384E7046F
:1001A400B7C50000370700F01306F00F9387053535
:1001B400130000009387F7FFE39C07FE83264700A4
:1001C4008327470093F606F09387170093F7F70FFA
:1001D400B3E7D7002322F7008327470093F7F70FED
:0801E400E396C7FC67800000F0
:1001EC00B70700F01307F0FF23A4E70023A20700D2
:0401FC006F00000090
:040000058000000077
:00000001FF
