:0200000480007A
:100000006F00000B1300000013000000130000003D
:100010001300000013000000130000001300000094
:10002000232E11FE232C51FE232A61FE232871FE6C
:100030002326A1FE2324B1FE2322C1FE2320D1FECC
:10004000232EE1FC232CF1FC232A01FD232811FDA2
:100050002326C1FD2324D1FD2322E1FD2320F1FD30
:10006000130101FCEF0080128320C103832281036E
:1000700003234103832301030325C1028325810256
:1000800003264102832601020327C1018327810140
:100090000328410183280101032EC100832E810022
:1000A000032F4100832F010013010104730020304E
:1000B00097410000938181D6170100C4130181F498
:1000C0001385C18197650000938585D76308B500C6
:1000D00023200500130545006FF05FFF170500C4DE
:1000E000130545F2970500C89385C5F16308B5006F
:1000F00023200500130545006FF05FFF1735000052
:100100001305C5511301C1FF9735000093850551B3
:10011000630EB50083260500130545002320A100CA
:10012000E7800600032501006FF01FFE1301410068
:10013000371500001305058873104530372500007A
:100140001305858073100530EF20504A6F000000C2
:10015000B70701F01307500323A4E700130770004B
:1001600023A6E70067800000B70702F023AA070074
:100170001307F0FF23A8E70067800000B70702F02D
:1001800023A0070423A40704678000006780000001
:10019000B70702F003A587046780000003C75183F7
:1001A000930710046304F7006780000083270500AD
:1001B00003A7C18393879700B387E7402320F50007
:1001C0006780000003A64184630806000327060039
:1001D0002320E50003A6418483A5C1831306C6003E
:1001E0001305A0006F00D00F130101FF2320210190
:1001F00083A74184232481000324050003A707006B
:100200002322910083AE470003AE870003A30701BA
:1002100083A8470103A8870183A5070203A6470215
:1002200083A68702232611009304050003A5C701B6
:1002300083A7C7022320E40003A70400232EA40001
:100240002326F4022322D401930750002324C4015F
:1002500023286400232A1401232C04012320B40240
:100260002322C4022324D40223A6F4002326F4006C
:100270002320E40013050400EFF0DFF4832744009B
:100280006380070883A704008320C1000324810042
:1002900083AF070003AF470083AE870003AEC700FC
:1002A00003A3070183A8470103A8870183A5C7010A
:1002B00003A6070283A6470203A7870283A7C702F4
:1002C00023A0F40123A2E40123A4D40123A6C401A2
:1002D00023A8640023AA140123AC040123AEB400B4
:1002E00023A0C40223A2D40223A4E40223A6F4027E
:1002F00003290100832441001301010167800000EC
:1003000003A5840093076000930584002326F4006E
:10031000EF00100D83A741840325C4001306C40019
:1003200083A707008320C100832441002320F40019
:1003300003248100032901009305A000130101019A
:100340006F00007A83C7518383A681839387F7FB6D
:1003500093B71700B3E7D70023ACF182130720044B
:10036000238AE1826780000013071004A38AE182D8
:1003700023AC018267800000130101F6130500031E
:10038000232E1108232C8108232A91072326B10745
:10039000232A9108232821092326310923244109EE
:1003A0002322510923206109232E7107232C810761
:1003B0002328A107EF00102F23A0A1841305000319
:1003C000EF00502E83A7018423A2A1842320F500EF
:1003D000930720002324F500B7350080930780029F
:1003E0002326F5001306F001938505E62322050078
:1003F00013050501EF001048373700809307873C4D
:10040000032E873C03A3470083A8870003A8C700E7
:1004100083A5070103A6470183A6870103D7C70168
:1004200083C7E701B73D0080231EE102230FF102DD
:100430001387CD729307A0001305A000232EF76445
:100440002320C10323226102232411032326010355
:100450002328B102232AC102232CD102EF00100766
:1004600037350080130505E8EF00903C1305A00028
:10047000EF00D00583A701836380076237350080D2
:10048000130505EBEF00D03A1305A000EF001004B0
:10049000373500801305C5F0EF0090231305A00049
:1004A000EF00D002373500809305800C130545F42A
:1004B000EF001022EFF0DFCD373900808327893E2F
:1004C000373D0080032C8D402326F10023A6A18216
:1004D000930910001309893E13042000EFF0DFE8B0
:1004E000EFF05FE68347E90103264901032E490047
:1004F000032389008328C900032809018326890171
:100500000357C901832EC100230FF1049305010491
:100510009307100013050102232AC104232EF100C2
:10052000232A81002320D1052322C105232461042D
:100530002326110523280105232CD104231EE104C1
:10054000EF004063032641011335150023ACA1825F
:10055000634AC40293172600B387C7009387D7FF67
:10056000130506009305300013068101232CF100CA
:10057000EF0000570326410113061600232AC1008D
:10058000E35AC4FC832681011385C1849385CD720F
:10059000EF00005603A54184930A1004130A3000AB
:1005A000EFF09FC403C7418393070004130B8D40F2
:1005B00063F4E70213850A0093053004EF008059C5
:1005C0008327C10113871A006302F54683C741835D
:1005D000937AF70FE3F057FF83274101032B810143
:1005E00013054101330AFA0293891900B34A6A03D9
:1005F000232A5101EFF09FBA9307900CE390F9EE94
:10060000EFF01FB923A4A18237350080130545F709
:10061000EF0010221305A000EF00406B373500807B
:10062000130545F8EF00D0201305A000EF00006A85
:1006300083A5C183373500801305C5FB373400809F
:10064000EF00100993055000130584FDEF005008DA
:1006500083A5818337350080130545FFEF005007E0
:1006600093051000130584FDEF00900683C55183A8
:100670003735008013050501EF00900537390080FC
:10068000930510041305C902EF00900483C541834C
:100690003735008013058504EF009003930520048F
:1006A0001305C902EF00D0029387C18483A5070216
:1006B0003735008013054506EF0090019305700063
:1006C000130584FDEF00D000B73700809387C77211
:1006D00083A5C7653735008013050508EF00407F07
:1006E000373500801305C509EF00901437350080B9
:1006F0001305850CEF00D01303A74184B7370080A2
:100700001385470D83250700373D0080373C008067
:10071000EF00007C373500801305050FEF00501106
:1007200003A7418413050D12B73B008083254700C2
:10073000B739008037390080EF00807993050000D9
:10074000130584FDEF00C07803A741841305CC1383
:10075000330A6A4183258700EF00807793052000E4
:10076000130584FDEF00C07603A7418413858B1524
:100770008325C700EF00C07593051001130584FDA4
:10078000EF00007583A54184138549179385050102
:10079000EF00007413050919EF0090093735008048
:1007A0001305451CEF00D00803A70184B73700806C
:1007B0001385470D83250700EF00807137350080D2
:1007C0001305451DEF00D00683A7018413050D1204
:1007D00083A54700EF00C06F93050000130584FD5B
:1007E000EF00006F83A701841305CC1383A5870056
:1007F000EF00006E93051000130584FDEF00406DBF
:1008000083A7018413858B1583A5C700EF00406C77
:1008100093052001130584FDEF00806B83A50184FF
:100820001385491793850501EF00806A130509199F
:10083000EF00100083254101373500801305452165
:10084000EF00006993055000130584FDEF00406838
:1008500093173A00338A474137350080B3055A4130
:1008600013050523EF00C0669305D000130584FD32
:10087000EF00006683258101373500801305C5240C
:10088000EF00006593057000130584FDEF004064E0
:100890008325C1013735008013058526EF004063AD
:1008A00093051000130584FDEF008062373500804A
:1008B0009305010213054528EF008061373500805C
:1008C0001305052AEF00C076373500809305010433
:1008D0001305452DEF00C05F373500801305052F48
:1008E000EF0000751305A000EF00403E03A7C18292
:1008F00083A581829307301FB385E54023A2B1828F
:1009000063D8B71A373500801305C537EF00405C50
:1009100003A54182EF20801213040500EF208022FE
:10092000B737008003A6876183A6C761EF10000771
:10093000B737008003A6076283A64762EF00D0188E
:10094000EF20002E23A0A182B737008003A5876285
:1009500093050400EF10C06023AEA18037350080FE
:1009600013050539EF00C05603A54182EF20000DA5
:10097000B73700809305050003A5C762EF10405EFE
:1009800093040500EF20800413040500EF20000B02
:100990009305050013850400EF10903EB7370080E3
:1009A00083A50763EF10500EEF204002930405006B
:1009B00037350080930504001305053CEF004051D6
:1009C0009307900063D89710373500809385040013
:1009D0001305453CEF00C04F1305A000EF00002FAA
:1009E00093178400B3E79700370700F02322F7003E
:1009F0008320C109032481098324410903290109B2
:100A00008329C108032A8108832A4108032B01088E
:100A1000832BC107032C8107832C4107032D01077A
:100A2000832DC1061301010A678000009305C101EF
:100A300013050000EF00C01A03234B0083288B002E
:100A40000328CB0003250B0183254B0103268B01D3
:100A50008356CB010347EB0183C74183938A1A0076
:100A60002320810523226104232411052326010567
:100A70002328A104232AB104232CC104231ED1045A
:100A8000230FE10423AE318393FAFA0F138A09008E
:100A9000E3F257B36FF05FB4373500801305C5ED4F
:100AA000EF0000591305A000EF0040226FF05F9E99
:100AB0003735008013054532EF0080573735008009
:100AC0001305C535EF00C0561305A000EF00002048
:100AD0006FF01FF213050003EF00401F6FF0DFEE11
:100AE00013052500B305B5002320B600678000007C
:100AF000130756001308800C33080703131626004B
:100B0000931727003305F5002320D500232CE50695
:100B10002322D500B307C800B387F50083A60701D9
:100B200023AAE70023ACE7001387160023A8E700F9
:100B300083270500B3850501B385C500371600007E
:100B4000B305B60023AAF5FA1307500023AEE182DD
:100B5000678000001375F50F93F5F50F6306B50078
:100B60001305000067800000A38AA182130510000E
:100B700067800000130101FF2324810023229100DC
:100B800023261100130405009384050083C5340057
:100B900003452400EFF01FFCE31A05FE93850400D3
:100BA00013050400EF00805A930700006358A0006B
:100BB0001307A00023AEE182930710008320C10039
:100BC00003248100832441001385070013010101E0
:100BD000678000001305E5FF1335150067800000EE
:100BE000130101FF23248100232291001304050037
:100BF0002326110093840500EFF0DFFD9307040026
:100C0000631405009307300023A0F40013071000BD
:100C10006308E402630C0402930720006304F404F5
:100C2000130740006314E40023A0F4008320C100F4
:100C30000324810083244100130101016780000027
:100C400003A7C1839307400663DAE7028320C1004C
:100C50000324810023A00400832441001301010127
:100C6000678000008320C1000324810023A0E400EA
:100C700083244100130101016780000093073000C5
:100C800023A0F4006FF09FFAB70701F003A5470017
:100C9000135505011375F50F67800000130101FF5F
:100CA000232481002326110013040500EFF0DFFD4B
:100CB000E30E05FEB70701F023A087008320C100E3
:100CC0000324810013010101678000006FF01FFD04
:100CD000130101FF232481002326110013040500C2
:100CE00003450500630A050013041400EFF01FFE1E
:100CF00003450400E31A05FE8320C100032481009C
:100D000013010101678000001375F50F6FF01FFCE0
:100D1000130101FD232481022326110223229102C3
:100D200013040500634C050493040100130504003B
:100D30001307A0001384040063140500631E9400CD
:100D4000B377E50213041400938707033355E502D4
:100D5000A30FF4FE6FF05FFE1304F4FF03450400DD
:100D6000EFF09FFAE31A94FE8320C102032481026C
:100D7000832441021301010367800000E38605FA22
:100D80001305D002EFF05FF8330480406FF0DFF915
:100D9000130101FD9377F50023261102232481021C
:100DA00023229102930690001387770363E4F600F1
:100DB000138707039357450093F7F7002300E100DB
:100DC000930690001387070363F4F60013877703F5
:100DD0009357850093F7F700A300E1009306900076
:100DE0001387070363F4F600138777039357C5004F
:100DF00093F7F7002301E1009306900013870703A0
:100E000063F4F600138777039357050193F7F70010
:100E1000A301E100930690001387070363F4F60033
:100E2000138777039357450193F7F7002302E100F7
:100E3000930690001387070363F4F6001387770384
:100E40009357850193F7F700A302E1009306900002
:100E50001387070363F4F600138777031355C5015F
:100E60002303E10013079000930705036374A700B1
:100E700093077503A303F100130481009304010099
:100E80001304F4FF03450400EFF01FE8E31A94FE97
:100E90008320C10203248102832441021301010340
:100EA0006780000083A78184B386A70023A4D18430
:100EB00037050040370700041305050013070780B6
:100EC0003385A7006374D7007300100067800000AB
:100ED000130101FB23229102232611022324810204
:100EE00023202103232E3101232C4101232A5101E8
:100EF00093040500034505002322F10493074103F1
:100F0000232AB102232CC102232ED1022320E10483
:100F100023240105232611052326F1006304050877
:100F2000130400001309300693093007130A400622
:100F3000930A50076F008001EFF01FDD13041400C7
:100F4000B387840003C50700630E050493075002AE
:100F500013078007E312F5FE6F0040016386370731
:100F600063804709638C57096388E70A13041400F8
:100F7000B387840083C70700E38207FCE39027FF61
:100F80008327C1001304140003A5070093874700BB
:100F90002326F100EFF05FD7B387840003C5070075
:100FA000E31605FA8320C10203248102832441024F
:100FB000032901028329C101032A8101832A4101F6
:100FC00013010105678000008327C10003A5070006
:100FD000938747002326F100EFF09FCF6FF01FF6B5
:100FE0008327C1009305100003A5070093874700DE
:100FF0002326F100EFF0DFD16FF05FF48327C1000B
:101000009305000003A50700938747002326F100FE
:10101000EFF01FD06FF09FF28327C10003A50700F8
:10102000938747002326F100EFF09FD66FF01FF162
:10103000130101FF2324810023261100130405005E
:1010400003450500630A050013041400EFF01FC8F0
:1010500003450400E31A05FE1305A000EFF01FC7C7
:101060008320C10003248100130500001301010146
:1010700067800000B3C7A50093F737003307C500AA
:10108000639607009307300063E2C70293070500E9
:10109000637CE50A83C605009387170093851500D6
:1010A000A38FD7FEE3E8E7FE678000009376350064
:1010B00093070500638E060083C60500938717001B
:1010C00093851500A38FD7FE93F637006FF09FFE30
:1010D0009376C7FF138606FE63F4C70683A3050055
:1010E00083A2450083AF850003AFC50083AE050131
:1010F00003AE450103A3850183A8C501938545027D
:1011000023A0770003A8C5FF23A2570023A4F7015B
:1011100023A6E70123A8D70123AAC70123AC6700B0
:1011200023AE17019387470223AE07FF6FF0DFFA64
:1011300003A60500938747009385450023AEC7FEAD
:10114000E3E8D7FEE3E8E7F4678000003367B50023
:101150009303F0FF1377370063100710B7877F7F83
:101160009387F7F70326050083A60500B372F60000
:101170003363F600B382F200B3E26200639272104E
:101180006316D6080326450083A64500B372F60011
:101190003363F600B382F200B3E26200639E720C26
:1011A0006316D6060326850083A68500B372F60073
:1011B0003363F600B382F200B3E262006398720C0C
:1011C0006316D6040326C50083A6C500B372F600D5
:1011D0003363F600B382F200B3E262006392720CF2
:1011E0006316D6020326050183A60501B372F60035
:1011F0003363F600B382F200B3E26200639C720ACA
:101200001305450193854501E30ED6F41317060136
:1012100093970601631EF7001357060193D7060143
:101220003305F7409375F50F639005026780000062
:101230001357070193D707013305F7409375F50F4F
:1012400063940500678000001377F70F93F7F70F9B
:101250003305F740678000000346050083C605009C
:1012600013051500938515006314D600E31606FEDA
:101270003305D6406780000013054500938545007F
:10128000E31CD6FC130500006780000013058500F1
:1012900093858500E312D6FC1305000067800000EB
:1012A0001305C5009385C500E318D6FA13050000A1
:1012B000678000001305050193850501E31ED6F83C
:1012C0001305000067800000130101FD2324810243
:1012D0002328610113040500130B050013D54501F4
:1012E00023202103232E3101232C410123267101C8
:1012F0001399C5002326110223229102232A5101AA
:101300001375F57F930B0600138A06001359C90065
:1013100093D9F5016304050A9307F07F6304F51080
:10132000935ADB011319390033E92A01B70A800007
:10133000B36A590113143B00930415C0130B00004A
:1013400013554A011319CA001375F57F13880B0052
:101350001359C900135AFA01630205109307F07F6D
:101360006302F51693D7DB0113193900B3E72701A0
:10137000B7088000B3E8170113983B00130515C0A8
:101380009307000013172B003367F7001307F7FFCD
:101390009306E00033C649013385A44063E0E616B6
:1013A0009726000093868608131727003307D70077
:1013B000032707003307D70067000700B36A6901F6
:1013C000638E0A066300090413050900EF10501D1F
:1013D000930755FF1307C001634EF702930AD0012C
:1013E000130485FFB38AFA4033198900B35A5B01AD
:1013F000B3EA2A0133148B009304D0C0B384A44011
:101400006FF0DFF313050B00EF10901913050502C1
:101410006FF01FFC130985FDB31A2B0113040000A4
:101420006FF09FFDB36A690163820A02930A0900A3
:101430009304F07F130B30006FF09FF01304000053
:1014400093040000130B10006FF09FEF13040000D3
:101450009304F07F130B20006FF09FEEB3687901C7
:10146000638E08066300090413050900EF1050138A
:10147000930855FF9307C00163CE17039307D0016C
:10148000130885FFB387174133190901B3D7FB0050
:10149000B3E8270133980B019307D0C03385A740E9
:1014A0006FF01FEE13850B00EF10900F1305050270
:1014B0006FF01FFC930785FDB398FB001308000035
:1014C0006FF09FFDB36879016382080293080900F9
:1014D0001305F07F930730006FF0DFEA1308000078
:1014E00013050000930710006FF0DFE913080000F8
:1014F0001305F07F930720006FF0DFE863E65801E3
:1015000063981A35636604359396FA01935714006D
:101510001317F40193DA1A0033E4F6009397880066
:1015200093588801B3E7F80093DE0701B3D8DA03D4
:10153000139E0701135E0E011313880093560401D6
:1015400033F9DA039385080033081E03931A09015F
:10155000B3E6560163FE0601B386F6009385F8FFF5
:1015600063E8F60063F606019385E8FFB386F600AC
:10157000B386064133DFD603131404011354040168
:10158000B3F6D60313080F00B308EE0393960601D3
:10159000B366D40063FE1601B386F6001308FFFF9E
:1015A00063E8F60063F616011308EFFFB386F60052
:1015B0003384164193960501B7050100B3E6060191
:1015C000138FF5FF93D2060133F8E601935F030111
:1015D000337FE301B303E803B384E20333880F03EB
:1015E000B388F203B302980013D8030133085800FC
:1015F00063749800B388B80093520801B382120153
:10160000B70801009388F8FFB37518019395050199
:10161000B3F31301B3857500636854009388060023
:10162000631454046372B7043307670033386700E8
:101630003308F800330404019388F6FF63E687005B
:10164000639487026362670263665400639E82004C
:10165000637CB700330767009388E6FFB336670003
:10166000B386F6003304D400B305B74033045440C6
:101670003337B7003304E4401308F0FF6384871264
:10168000B352D40393D605013374D40313880200F4
:1016900033075E021314040133E48600637EE40022
:1016A0003304F4001388F2FF6368F4006376E40007
:1016B0001388E2FF3304F4003304E440B356D40348
:1016C0009395050193D505013374D4031387060060
:1016D000330EDE021314040133E48500637EC4017B
:1016E0003304F4001387F6FF6368F4006376C401E3
:1016F0001387E6FF3304F400131808013368E80089
:101700009316080193D6060193550801B38EE6039C
:101710003304C441338FE503338EBF02B38FDF023E
:1017200093D60E01B38FEF01B386F60163F6E6019F
:1017300037070100330EEE0093D50601B385C501CE
:10174000370E0100130EFEFF33F7C6011317070112
:10175000B3FECE013307D7016366B400631CB42225
:1017600063020704338487009306F8FF6364F4027E
:101770006366B400631EB4206370E3029306E8FF5F
:101780001318130033336800B307F3003304F40075
:10179000130308006316B40013880600630467008F
:1017A00013E816009306F53F6352D0109377780044
:1017B000638007029377F80013074000638AE7000D
:1017C0009307480033B80701B3880801138807005E
:1017D0009397780063DA0700B70700FF9387F7FF56
:1017E000B3F8F800930605409307E07F63C2D7186B
:1017F000135838001397D8013367070193D738007F
:101800009397C70093F6F67F939646018320C10213
:101810000324810293D7C7001316F601B3E7D7005C
:10182000B3E6C70083244102032901028329C101D1
:10183000032A8101832A4101032B0101832BC1006B
:10184000130507009385060013010103678000005C
:101850001305F5FF130700006FF05FCC1386090036
:1018600093880A001308040093070B001307200055
:101870006380E710130730006382E70E1307100040
:10188000E392E7F293070000130700006F0040099E
:1018900013060A006FF09FFDB70808001308000048
:1018A00013060000930730006FF05FFC93071000F1
:1018B000B387D74013078003E346F7FC1307F00113
:1018C0006344F7061305E5413397A800B356F800C3
:1018D0003315A8003367D7003335A0003367A7005E
:1018E000B3D7F80093767700638006029376F7000B
:1018F00093054000638AB6009306470033B7E600BD
:10190000B387E700138706009396870063CA06062D
:101910001398D701135737003367E80093D7370080
:10192000930600006FF0DFED130710FE3307D7407A
:101930009305000233D7E800930600006386B700E2
:101940001305E543B396A800B3E60601B336D0000D
:101950003367D700930700006FF0DFF8B707080080
:10196000130700009306F07F130600006FF05FE995
:1019700093070000130700009306F07F6FF05FE805
:101980009307000013070000930610006FF05FE755
:1019900013880600930608006FF09FE0130101FD15
:1019A0002320210313D94501232E3101232C41018A
:1019B000232A51012328610123267101939AC5002E
:1019C0002326110223248102232291021379F97F15
:1019D000130B0500930B0600138A060093DACA0066
:1019E00093D9F5016306090A9307F07F6304F910A0
:1019F0001354D501939A3A00B36A54013704800016
:101A000033E48A0093143500130919C0130B000046
:101A100013554A01931ACA001375F57F13870B00FB
:101A200093DACA00135AFA01630405109307F07F92
:101A30006304F51693D7DB01939A3A00B3EA570192
:101A4000B7078000B3E7FA0013973B00130515C0F2
:101A50009306000093152B00B3E5D5003305A900CC
:101A60009385F5FF9308E00033C64901130815007C
:101A700063E0B816172500001305059F9395250010
:101A8000B385A50083A50500B385A5006780050083
:101A900033E4AA00630E040663800A0413850A0077
:101AA000EF100030930755FF1307C001634CF70296
:101AB0001304D001930485FF3304F440B39A9A00D1
:101AC00033548B0033645401B3149B001309D0C00A
:101AD0003309A9406FF09FF3EF10802C1305050226
:101AE0006FF05FFC130485FD33148B00930400003A
:101AF0006FF0DFFD33E4AA006304040293040500E1
:101B000013840A001309F07F130B30006FF05FF0AD
:101B10009304000013090000130B10006FF05FEF37
:101B2000930400001309F07F130B20006FF05FEEA9
:101B3000B3E77A01638E070663800A0413850A00FF
:101B4000EF100026930655FF9307C00163CED7021E
:101B50009307D001130785FFB387D740B39AEA00F4
:101B6000B3D7FB00B3E757013397EB001306D0C0A0
:101B70003305A6406FF0DFED13850B00EF10402218
:101B8000130505026FF01FFC930785FDB397FB005B
:101B9000130700006FF09FFDB3E77A01638207022D
:101BA00093870A001305F07F930630006FF09FEAD9
:101BB0001307000013050000930610006FF09FE963
:101BC000130700001305F07F930620006FF09FE8D5
:101BD000B70F0100138FFFFF93D6040113530701C2
:101BE000B3F4E4013377E701B3089302B305970236
:101BF000B382E602338E580093D80501B388C8013A
:101C0000B38E660263F45800B38EFE0113D9080147
:101C1000B3F8E80193DF0701B3F5E501B3F3E7019A
:101C200093980801B388B800B3877602B38593020E
:101C3000B3849F02338EF40093D40501B384C401AE
:101C4000B386F60363F6F400B7070100B386F60027
:101C500013DF0401B7090100330FDF009386F9FF9A
:101C6000B3F4D400B3F5D500935704019394040161
:101C70003374D400B384B400B306870233099900E7
:101C8000338EE702B30583023307F3023383C501C2
:101C900093D50601B385650063F4C50133073701A9
:101CA00013D30501B7090100B302E3001387F9FF5D
:101CB000B3F5E500B3F6E60033838302939505019F
:101CC000B385D5003387770233848F02338EFF02CA
:101CD0003304E40093570301338487006374E40002
:101CE000330E3E01B70701009387F7FFB376F40088
:101CF0003373F30093960601B38E2E01B38666000C
:101D0000B3B49E00B386E601B3879600B38EBE00DF
:101D1000B3B5BE0033835700B30FB300B3B6E601CB
:101D2000B3B79700B3E7F6001354040133335300FD
:101D3000B3B5BF00B3878700B365B300B387B700FF
:101D4000B387C70113D77F0193979700B3E7E700E5
:101D500013979E00336717013337E00093DE7E014F
:101D600093969F003367D7013367D7009396770028
:101D700063D20610935617001377170033E7E60077
:101D80009396F7013367D70093D717009305F83F71
:101D90006356B00E93767700638006029376F70061
:101DA00013054000638AA6009306470033B7E60098
:101DB000B387E700138706009396770063DA06007F
:101DC000B70600FF9386F6FFB3F7D70093050840E8
:101DD0009306E07F63C6B616935637001397D70174
:101DE0003367D70093D7370093F6F57F9397C700F3
:101DF000939646018320C1020324810293D7C70032
:101E00001316F601B3E7D700B3E6C70083244102F7
:101E1000032901028329C101032A8101832A410187
:101E2000032B0101832BC1001305070093850600D6
:101E30001301010367800000138609009307040063
:101E40001387040093060B0093052000638AB60EE7
:101E500093053000638CB60C93051000E398B6F23E
:101E600093070000130700006F00800813060A00A4
:101E70006FF09FFD130805006FF05FF11305100070
:101E80003305B54093068003E3CCA6FC9306F0012E
:101E900063C4A6061308E841B3960701B355A7002B
:101EA00033170701B3E6B6003337E00033E7E60047
:101EB000B3D7A70093767700638006029376F70086
:101EC00093054000638AB6009306470033B7E600E7
:101ED000B387E700138706009396870063CA060658
:101EE0009396D7011357370033E7E60093D73700AF
:101EF000930500006FF05FEF930610FEB386B640C7
:101F000093080002B3D6D7009305000063061501BD
:101F10001308E843B395070133E7E5003337E000E2
:101F200033E7E600930700006FF0DFF8B70708001B
:101F3000130700009305F07F130600006FF0DFEA3F
:101F400093070000130700009305F07F6FF0DFE9AF
:101F50009307000013070000930510006FF0DFE8FF
:101F6000130101FE232A91009354750123282101B6
:101F7000232631012324410193199500232E1100BA
:101F8000232C81002322510193F4F40F138A0500BE
:101F900093D999001359F501638604089307F00F4C
:101FA0006382F40A93993900B7070004B3E9F90092
:101FB000938414F8930A000013557A0113149A00BD
:101FC0001375F50F13549400135AFA01630C0508A6
:101FD0009307F00F6308F50A13143400B7070004E1
:101FE0003364F400130515F89307000093962A0054
:101FF000B3E6F6009386F6FF1307E0003346490187
:102000003385A4406360D70A9715000093858549FE
:1020100093962600B386B60003A706003307B700E1
:1020200067000700638A090213850900EF00505713
:102030009307B5FF9304A0F8B399F900B384A440C3
:102040006FF05FF79304F00F930A2000E38609F620
:10205000930A30006FF05FF693040000930A1000BB
:102060006FF09FF5630A040213050400EF0050535C
:102070009307B5FF3314F4009307A0F83385A74006
:102080006FF09FF61305F00F93072000E30004F6AE
:10209000930730006FF09FF51305000093071000C1
:1020A0006FF0DFF41318540063F6890E1305F5FF83
:1020B000930600001354080133D38902B7070100C7
:1020C0009387F7FFB377F80093D6060133F78902B9
:1020D00093050300B38867021317070133E7E6008F
:1020E000637E1701330707019305F3FF6368070158
:1020F000637617019305E3FF3307070133071741A1
:10210000B358870233778702B38617039317070103
:102110001387080063FED700B38707011387F8FF12
:1021200063E8070163F6D7001387E8FFB387070169
:1021300013940501B387D7403364E400B337F0004C
:102140003364F4001307F507635EE00C93777400C3
:10215000638A07009377F400930640006384D700F6
:10216000130444009317440063DA0700B70700F82C
:102170009387F7FF3374F400130705089307E00F04
:102180001354340063D4E704130400001307F00F62
:102190006F00C0039396F90193D919006FF09FF176
:1021A000130609001384090093870A00130720000F
:1021B000E38CE7FC130730006380E70C1307100083
:1021C000E392E7F8130400001307000013149400CF
:1021D0001377F70F13177701135494003364E40057
:1021E0001315F6013365A4008320C1010324810186
:1021F00083244101032901018329C100032A8100AD
:10220000832A4100130101026780000013060A00BF
:102210006FF0DFF937044000130600009307300029
:102220006FF0DFF893071000B387E7401307B001A2
:10223000E34AF7F81305E509B357F4003314A40093
:102240003334800033E4870093777400638A070097
:102250009377F400130740006384E70013044400FD
:102260009317540013543400E3D007F6130400000E
:10227000130710006FF09FF5370440001307F00FAD
:10228000130600006FF09FF4130101FE23282101C3
:1022900013597501232A910023263101232251016C
:1022A00093149500232E1100232C81002324410137
:1022B0001379F90F938A050093D494009359F5018B
:1022C000630809089307F00F6304F90A9394340034
:1022D000B7070004B3E4F400130919F8130A000067
:1022E00013D57A0113949A001375F50F13549400C3
:1022F00093DAFA01630E05089307F00F630AF50AF3
:1023000013143400B70700043364F400130515F800
:102310009307000013172A003367F7003305A9005D
:102320001307F7FF9305E000B3C659011306150024
:1023300063E0E50A971500009385851A13172700B7
:102340003307B700032707003307B700670007000C
:10235000638A040213850400EF0090249307B5FFFD
:102360001309A0F8B394F4003309A9406FF01FF7E4
:102370001309F00F130A2000E38404F6130A300057
:102380006FF01FF613090000130A10006FF05FF5DD
:10239000630A040213050400EF0090209307B5FFC1
:1023A0003314F4009307A0F83385A7406FF05FF66D
:1023B0001305F00F93072000E30E04F49307300099
:1023C0006FF05FF513050000930710006FF09FF4A6
:1023D000B70701001383F7FF13D7040193550401D6
:1023E000B3F4640033746400B38884023308870252
:1023F0003304B702B385950293D40801B385050170
:10240000B384B40063F404013304F400B3F764004C
:1024100093970701B3F86800B38717011397670014
:1024200093D404013337E00093D7A70133848400A9
:10243000B367F700131464003364F4009317440087
:1024400063DC0708935714001374140033E4870007
:102450001307F6076356E00893777400638A070052
:102460009377F400930540006384B700130444009D
:102470009317440063DA0700B70700F89387F7FF64
:102480003374F400130706089307E00F1354340065
:1024900063D8E70A130400001307F00F6F00400A27
:1024A000938609001384040093070A001307200091
:1024B000E382E7FE13073000638EE7061307100080
:1024C000E398E7F813040000130700006F004007CB
:1024D00093860A006FF09FFD130605006FF05FF70B
:1024E00093071000B387E7401307B001E34CF7FCF4
:1024F0001306E609B357F4003314C40033348000E4
:1025000033E4870093777400638A07009377F400BD
:10251000130740006384E70013044400931754003A
:1025200013543400E3D207FA130400001307100019
:102530006F000001370440001307F00F93060000FE
:10254000131494001377F70F1317770113549400A3
:102550003364E4001395F6013365A4008320C101C0
:102560000324810183244101032901018329C1003E
:10257000032A8100832A41001301010267800000C1
:1025800037078000130101FF1307F7FF935675010A
:1025900013D87501B377A700232291003377B700D2
:1025A0002320210193F6F60F1378F80F232611004C
:1025B000232481001306F00F9354F50113890600BC
:1025C000939737001305080093D5F50113173700CB
:1025D0006314C8006314070093C5150033860641D1
:1025E000639E9516635CC008631C08046306073489
:1025F0001306F6FF631E0602B387E7001385060085
:1026000013975700635C0710130515001307F00FAD
:10261000630EE5323707007E93F617001307F7FFC6
:1026200093D71700B3F7E700B3E7D7006F00000FA9
:102630009305F00F639EB6001305F00F6F00000EB8
:102640009305F00FE38AB6FEB70500043367B700C1
:102650009305B00163D6C500130710006FF0DFF9D2
:10266000930500023355C7003386C5403317C700B2
:102670003337E0003367E5006FF01FF863060606A6
:102680003306D84063940602638C072A1306F6FFCC
:1026900063160600B387E7006FF09FF69306F00F0E
:1026A000631ED800930707006FF01FF99306F00F21
:1026B000E30AD8FEB7060004B3E7D7009306B001DB
:1026C00063D6C600930710006FF0DFFC930600028C
:1026D000B386C640B3D5C700B397D700B337F00071
:1026E000B3E7F5006FF01FFB138616001375E60FB6
:1026F000631A0504639206046384072463000702D7
:10270000B387E70013975700635A0700370700FCA9
:102710001307F7FFB3F7E7001305100013F777006F
:102720006308072213F7F700930640006302D722DD
:10273000938747006F00C021E38607F6E30E07EE9C
:102740006F0040179306F00F6300D620B387E700B1
:1027500093D71700130506006FF05FFC6358C0089D
:102760006318080413850600E30A07FA1306F6FF48
:1027700063120602B387E74013975700E35007FA46
:10278000370400041304F4FF33F487001309050031
:102790006F0080149305F00F1305F00FE380B6F877
:1027A0009305B00163D2C502130710006F00400308
:1027B0009305F00F1305F00FE382B6F6B70500049A
:1027C0003367B7006FF0DFFD930500023355C70094
:1027D0003386C5403317C7003337E0003367E50061
:1027E000B387E740138506006FF01FF9630A0606FA
:1027F0003306D84063980602638007081306F6FF85
:1028000063180600B307F740938405006FF0DFF606
:102810009306F00F6310D802930707009384050016
:102820006FF09FE19306F00FE308D8FEB7060004AF
:10283000B3E7D7009306B00163D6C6009307100034
:102840006FF05FFC93060002B386C64033D8C70022
:10285000B397D700B337F000B367F8006FF09FFA73
:10286000138516001375E50F631E050463900604B7
:102870006398070063060702930707006F00800153
:10288000E30E07E8B386E740139656006358060048
:10289000B307F740938405006FF05FE8639006127A
:1028A00093070000930400006F00800AE39807E894
:1028B000E31407F693040000B70700021305F00FB6
:1028C0006F0000093384E7409316540063D4060474
:1028D0003304F7409384050013050400EF00404CD7
:1028E0001305B5FF3314A400634E250333052541BA
:1028F0001305150013070002B357A4003305A740C2
:102900003314A40033348000B3E7870013050000BC
:102910006FF0DFE0E31204FC9307000013050000F2
:102920006FF05FF8B70700FC9387F7FF3305A94006
:10293000B377F4006FF09FDE138506006FF01FDEA3
:10294000930707006FF09FDD1305F00F930700005A
:1029500013975700635E0700130515001307F00F68
:102960006302E506370700FC1307F7FFB3F7E7003C
:102970001307F00F93D737006318E500638607004D
:10298000B7074000930400001375F50F8320C100C2
:1029900003248100939797001317750113D59700AF
:1029A0009394F4013365E500336595000329010034
:1029B0008324410013010101678000009387060012
:1029C0006FF0DFD5930700006FF09FFA37068000A5
:1029D000135775019307F6FF1377F70F9305E00779
:1029E000B3F7A7009356F50163F6E5049305D00904
:1029F00063FAE500370500801345F5FF3385A6002F
:102A00006780000033E5C7009307500963DCE700E7
:102A10001307A7F63315E500638006023305A040CF
:102A200067800000930760093387E7403355E5006E
:102A30006FF09FFE1305000067800000130101FF87
:102A40002326110023248100232291006304050E14
:102A50009357F54133C4A7003304F4409354F50170
:102A600013050400EF00C0339307E009B387A740C4
:102A7000130760096342F704130780006356A70039
:102A8000130585FF3314A4001314940093F7F70F74
:102A900093977701135494001395F4013364F40071
:102AA0003365A4008320C1000324810083244100F6
:102AB0001301010167800000130790096350F702BA
:102AC000130750003307A7409306B5013357E400BE
:102AD0003314D4003334800033648700130750006C
:102AE0006356A7001307B5FF3314E400370700FC53
:102AF0001307F7FF937674003377E400638A0600C8
:102B00001374F400930640006304D40013074700D5
:102B10009316570063DC0600B70700FC9387F7FFA6
:102B20003377F7009307F009B387A74013543700B2
:102B30006FF09FF51304000093070000930400005A
:102B40006FF09FF493577501130101FF93F7F70F8F
:102B50002324810023229100131495009354F5013E
:102B600013851700232611001375E50F13549400E5
:102B70006304050413850738935734001314D401F4
:102B80009397C7001375F57F1315450193D7C700B9
:102B9000B3E7A7008320C1001305040003248100CC
:102BA0009394F40133E797009305070083244100D1
:102BB000130101016780000063940704E30204FC31
:102BC00013050400EF00C01D9307A00063C2A70215
:102BD0009307B000B387A74013075501B357F4001C
:102BE0003314E400130790383305A7406FF05FF902
:102BF000930755FFB317F400130400006FF09FFE16
:102C000093070000630A0400935734003707080055
:102C10001314D401B3E7E7001305F07F6FF05FF6FC
:102C20001396C5001356C60013D8450193173600F6
:102C30001378F87F1356D5013366F6009307180012
:102C400093F7E77F93D5F501131735006386070ADD
:102C5000930608C89307E00F63C2D70C6340D008FF
:102C6000930790FE63CCF610B70780001305E001D0
:102C70003366F6003305D5409307F00163C8A70219
:102C8000130828C8B3170701B337F000331606013D
:102C90003355A700B3E7C700B367F50093060000FC
:102CA00013F77700630007086F00C00D9307E0FF7C
:102CB000B386D74093070002B356D60093080000AE
:102CC0006306F500130828CAB3180601B3E7E80045
:102CD000B337F000B3E7F6006FF05FFC1315650043
:102CE0003335A000131636009357D7013366C5005D
:102CF000B367F6006FF0DFFAB367E600631608000B
:102D0000B337F0006FF09FF99306F00F638C070064
:102D100013163600B70700026FF09FFD93070000FF
:102D20009306F00F13975700635E07009386160013
:102D30001307F00F6382E606370700FC1307F7FF5F
:102D4000B3F7E7001307F00F93D737006398E60057
:102D500063860700B707400093050000939797002C
:102D600093F6F60F9396760193D797009395F50116
:102D7000B3E7D70033E5B700678000009307100082
:102D80009306000013F7F70013064000E30CC7F8A2
:102D9000938747006FF01FF9930700006FF09FFAC9
:102DA000B7070100637AF5029307F00FB3B7A700E6
:102DB00093973700130700023307F740B357F50026
:102DC0001705000013058575B307F50003C5070057
:102DD0003305A74067800000370700019307000113
:0C2DE000E36AE5FC930780016FF0DFFC64
:102DEC00130101FE232E1100232C8100B70700F0E4
:102DFC001304F0FF23A487001307100023A2E7009D
:102E0C0093078000130501002320F1009307500362
:102E1C002326F1002322010023240100EFD08FB2DE
:102E2C00EFD0CFB3EFD0CFB4370702F0B707010024
:102E3C0023228704938717002320F704EFD00FD3A6
:102E4C008320C10103248101130500001301010239
:042E5C00678000008B
:102E60004448525953544F4E452050524F475241B7
:102E70004D2C20534F4D4520535452494E4700008E
:102E80004468727973746F6E652042656E63686D15
:102E900061726B2C2056657273696F6E20322E3111
:102EA00020284C616E67756167653A2043290000F0
:102EB00050726F6772616D20636F6D70696C6564CD
:102EC0002077697468202772656769737465722753
:102ED00020617474726962757465000050726F6766
:102EE00072616D20636F6D70696C656420776974C1
:102EF000686F75742027726567697374657227201F
:102F0000617474726962757465000000506C65616B
:102F10007365206769766520746865206E756D62DB
:102F20006572206F662072756E73207468726F759B
:102F30006768207468652062656E63686D61726B96
:102F40003A200000457865637574696F6E2073746C
:102F5000617274732C2025642072756E73207468FE
:102F6000726F756768204468727973746F6E650A52
:102F700000000000457865637574696F6E20656EAA
:102F80006473000046696E616C2076616C756573D0
:102F9000206F6620746865207661726961626C6575
:102FA00073207573656420696E207468652062659E
:102FB0006E63686D61726B3A00000000496E745F69
:102FC000476C6F623A2020202020202020202020E3
:102FD0002025640A0000000020202020202020203E
:102FE00073686F756C642062653A20202025640A3E
:102FF00000000000426F6F6C5F476C6F623A2020E8
:1030000020202020202020202025640A000000000D
:1030100043685F315F476C6F623A20202020202098
:10302000202020202025630A0000000020202020EE
:103030002020202073686F756C642062653A202020
:103040002025630A0000000043685F325F476C6F11
:10305000623A202020202020202020202025630AE2
:10306000000000004172725F315F476C6F625B3835
:103070005D3A2020202020202025640A0000000046
:103080004172725F325F476C6F625B385D5B375DC8
:103090003A2020202025640A000000002020202063
:1030A0002020202073686F756C642062653A2020B0
:1030B000204E756D6265725F4F665F52756E73204C
:1030C0002B203130000000005074725F476C6F623B
:1030D0002D3E000020205074725F436F6D703A20C7
:1030E00020202020202020202025640A000000002D
:1030F000202020202020202073686F756C642062BF
:10310000653A20202028696D706C656D656E74616C
:1031100074696F6E2D646570656E64656E742900E8
:10312000202044697363723A202020202020202030
:10313000202020202025640A000000002020456E69
:10314000756D5F436F6D703A202020202020202075
:103150002025640A000000002020496E745F436F40
:103160006D703A2020202020202020202025640A75
:103170000000000020205374725F436F6D703A208E
:1031800020202020202020202025730A000000007D
:10319000202020202020202073686F756C6420621E
:1031A000653A2020204448525953544F4E452050F0
:1031B000524F4752414D2C20534F4D4520535452AE
:1031C000494E47004E6578745F5074725F476C6F6C
:1031D000622D3E00202020202020202073686F7563
:1031E0006C642062653A20202028696D706C656DE2
:1031F000656E746174696F6E2D646570656E64656B
:103200006E74292C2073616D652061732061626F7B
:1032100076650000496E745F315F4C6F633A202021
:1032200020202020202020202025640A00000000EB
:10323000496E745F325F4C6F633A2020202020205B
:10324000202020202025640A00000000496E745FC1
:10325000335F4C6F633A2020202020202020202044
:103260002025640A00000000456E756D5F4C6F6399
:103270003A20202020202020202020202025640A01
:10328000000000005374725F315F4C6F633A20207E
:1032900020202020202020202025730A000000006C
:1032A000202020202020202073686F756C6420620D
:1032B000653A2020204448525953544F4E452050DF
:1032C000524F4752414D2C203127535420535452D2
:1032D000494E47005374725F325F4C6F633A20204F
:1032E00020202020202020202025730A000000001C
:1032F000202020202020202073686F756C642062BD
:10330000653A2020204448525953544F4E4520508E
:10331000524F4752414D2C2032274E442053545295
:10332000494E47004D656173757265642074696D1F
:103330006520746F6F20736D616C6C20746F206FEB
:10334000627461696E206D65616E696E6766756C29
:1033500020726573756C747300000000506C6561B9
:10336000736520696E637265617365206E756D6249
:103370006572206F662072756E730000436C6F6318
:103380006B206379636C65733D2564200A0000003F
:10339000444D49505320706572204D687A3A202080
:1033A000202020202020202020202020202020201D
:1033B000202020202020202020202020000000008D
:1033C00025642E00256400004448525953544F4E42
:1033D000452050524F4752414D2C20312753542005
:1033E000535452494E4700004448525953544F4E8B
:1033F000452050524F4752414D2C2032274E4420F9
:10340000535452494E4700004448525953544F4E6A
:10341000452050524F4752414D2C203327524420D3
:10342000535452494E47000048E5FFFF5CE4FFFF5C
:1034300068E4FFFF5CE4FFFF34E5FFFF5CE4FFFFAF
:1034400068E4FFFF48E5FFFF48E5FFFF34E5FFFFC5
:1034500068E4FFFF34E4FFFF34E4FFFF34E4FFFFE0
:1034600070E4FFFFE4E9FFFFE4E9FFFF08EAFFFF84
:10347000D8E9FFFFD8E9FFFFC8EAFFFF08EAFFFF2E
:10348000D8E9FFFFC8EAFFFFD8E9FFFF08EAFFFF1E
:10349000D4E9FFFFD4E9FFFFD4E9FFFFC8EAFFFF4B
:1034A000E8ECFFFF24EDFFFF6CEDFFFF24EDFFFFD5
:1034B000D8EDFFFF24EDFFFF6CEDFFFFE8ECFFFF11
:1034C000E8ECFFFFD8EDFFFF6CEDFFFF00EDFFFF25
:1034D00000EDFFFF00EDFFFF74EDFFFFD0EFFFFFFA
:1034E000D0EFFFFFF4EFFFFFC8EFFFFFC8EFFFFFD4
:1034F00058F0FFFFF4EFFFFFC8EFFFFF58F0FFFFAA
:10350000C8EFFFFFF4EFFFFFC4EFFFFFC4EFFFFFC3
:10351000C4EFFFFF58F0FFFF0001020203030303A3
:103520000404040404040404050505050505050553
:103530000505050505050505060606060606060633
:10354000060606060606060606060606060606061B
:103550000606060606060606070707070707070703
:1035600007070707070707070707070707070707EB
:1035700007070707070707070707070707070707DB
:1035800007070707070707070707070707070707CB
:1035900007070707070707070808080808080808B3
:1035A000080808080808080808080808080808089B
:1035B000080808080808080808080808080808088B
:1035C000080808080808080808080808080808087B
:1035D000080808080808080808080808080808086B
:1035E000080808080808080808080808080808085B
:1035F000080808080808080808080808080808084B
:10360000080808080808080808080808080808083A
:08361000080808080808080872
:103618000000000080842E41000000205FA00242CC
:0C362800F90215503353DE470000C84281
:040000058000000077
:00000001FF
