:0200000480007A
:100000006F00000B1300000013000000130000003D
:100010001300000013000000130000001300000094
:10002000232E11FE232C51FE232A61FE232871FE6C
:100030002326A1FE2324B1FE2322C1FE2320D1FECC
:10004000232EE1FC232CF1FC232A01FD232811FDA2
:100050002326C1FD2324D1FD2322E1FD2320F1FD30
:10006000130101FCEF0080128320C103832281036E
:1000700003234103832301030325C1028325810256
:1000800003264102832601020327C1018327810140
:100090000328410183280101032EC100832E810022
:1000A000032F4100832F010013010104730020304E
:1000B00097410000938181D2170100C1130181F49F
:1000C0001385C18197650000938585D36308B500CA
:1000D00023200500130545006FF05FFF170500C1E1
:1000E000130545F2970500C49385C5F16308B50073
:1000F00023200500130545006FF05FFF1735000052
:100100001305C54D1301C1FF973500009385054DBB
:10011000630EB50083260500130545002320A100CA
:10012000E7800600032501006FF01FFE1301410068
:10013000371500001305058873104530372500007A
:100140001305858073100530EF2050466F000000C6
:10015000B70701F01307500323A4E700130770004B
:1001600023A6E70067800000B70702F023AA070074
:100170001307F0FF23A8E70067800000B70702F02D
:1001800023A0070423A40704678000006780000001
:10019000B70702F003A587046780000003C75183F7
:1001A000930710046304F7006780000083270500AD
:1001B00003A7C18393879700B387E7402320F50007
:1001C0006780000003A64184630806000327060039
:1001D0002320E50003A6418483A5C1831306C6003E
:1001E0001305A0006F00500E130101FF2320210111
:1001F00083A74184232481000324050003A707006B
:100200002322910083AE470003AE870003A30701BA
:1002100083A8470103A8870183A5070203A6470215
:1002200083A68702232611009304050003A5C701B6
:1002300083A7C7022320E40003A70400232EA40001
:100240002326F4022322D401930750002324C4015F
:1002500023286400232A1401232C04012320B40240
:100260002322C4022324D40223A6F4002326F4006C
:100270002320E40013050400EFF0DFF4832744009B
:100280006380070883A704008320C1000324810042
:1002900083AF070003AF470083AE870003AEC700FC
:1002A00003A3070183A8470103A8870183A5C7010A
:1002B00003A6070283A6470203A7870283A7C702F4
:1002C00023A0F40123A2E40123A4D40123A6C401A2
:1002D00023A8640023AA140123AC040123AEB400B4
:1002E00023A0C40223A2D40223A4E40223A6F4027E
:1002F00003290100832441001301010167800000EC
:1003000003A5840093076000930584002326F4006E
:10031000EF00900B83A741840325C4001306C4009B
:1003200083A707008320C100832441002320F40019
:1003300003248100032901009305A000130101019A
:100340006F00807883C7518383A681839387F7FBEF
:1003500093B71700B3E7D70023ACF182130720044B
:10036000238AE1826780000013071004A38AE182D8
:1003700023AC018267800000130101F7130500031D
:10038000232611082324810823229107232EB10557
:100390002322910823202109232E3107232C4107F2
:1003A000232A510723286107232671072324810765
:1003B0002320A107EF00902D23A0A18413050003A3
:1003C000EF00D02C83A7018423A2A1842320F50071
:1003D000930720002324F500B7350080930780029F
:1003E0002326F5001306F001938505E2232205007C
:1003F00013050501EF00502CB7370080938787382D
:1004000003AE070003A3470083A8870003A8C70023
:1004100083A5070103A6470183A6870103D7C70168
:1004200083C7E701B73D00802316E1022307F102ED
:100430001387CD6E9307A0001305A000232EF76449
:100440002328C101232A6100232C1101232E01013D
:100450002320B1022322C1022324D102EF00900500
:1004600037350080130505E4EF0010471305A000A1
:10047000EF00500483A70183638407603735008051
:10048000130505E7EF0050451305A000EF009002AB
:10049000373500801305C5ECEF00102E1305A000C2
:1004A000EF005001373500809305800C130545F0AF
:1004B000EF00902CEFF0DFCDB739008037340080AB
:1004C00023A6A182130A10009389893A930420007D
:1004D0001304843CEFF05FE9EFF0DFE683C7E90146
:1004E00003A6490183AE090003AE490003A38900B6
:1004F00083A8C90003A8090183A6890103D7C901FC
:100500002307F1049305010393071000130501016C
:100510002322C104232291002328D103232AC103CB
:10052000232C6102232E1103232001052324D1044F
:100530002316E1042326F100EF0040620326410068
:100540001335150023ACA18263CAC4029317260099
:10055000B387C7009387D7FF1305060093053000C4
:10056000130681002324F100EF000056032641000A
:10057000130616002322C100E3DAC4FC832681009F
:100580001385C1849385CD6EEF00005503A541848A
:10059000130B1004930A3000EFF01FC503C741830B
:1005A0009307000463F4E70213050B00930530047E
:1005B000EF00C0588327C10013071B00630AF544EE
:1005C00083C74183137BF70FE3F067FF8327410065
:1005D000832B810013054100B38AFA02130A1A0023
:1005E00033CB7A0323226101EFF05FBB9307900CBA
:1005F000E312FAEEEFF0DFB923A4A18237350080D1
:10060000130545F3EF00502D1305A000EF00806A9D
:1006100037350080130545F4EF00102C1305A000BA
:10062000EF00406983A5C183373500801305C5F706
:1006300037340080EF00501493055000130584F9FF
:10064000EF00901383A5818337350080130545FBA8
:10065000EF00901293051000130584F9EF00D011FC
:1006600083C5518337350080130505FDEF00D01099
:10067000B7340080930510041385C4FEEF00D00F3B
:1006800083C541833735008013058500EF00D00E08
:10069000930520041385C4FEEF00100E9387C184D8
:1006A00083A507023735008013054502EF00D00C03
:1006B00093057000130584F9EF00100CB737008024
:1006C0009387C76E83A5C76537350080130505047A
:1006D000EF00900A373500801305C505EF00D01FE5
:1006E0003735008013058508EF00101F03A74184EC
:1006F000B73700801385470983250700373D008001
:10070000373C0080EF005007373500801305050B9C
:10071000EF00901C03A7418413050D0E373A0080AB
:1007200083254700B739008037390080EF00D004B7
:1007300093050000130584F9EF00100403A741841A
:100740001305CC0FB38A7A4183258700EF00D002CE
:1007500093052000130584F9EF00100203A74184DC
:1007600013058A118325C700EF00100193051001BE
:10077000130584F9EF00500083A5418413854913C4
:1007800093850501EF00407F13050915EF00D01494
:100790003735008013054518EF00101403A70184B6
:1007A000B73700801385470983250700EF00C07C19
:1007B0003735008013054519EF00101283A7018417
:1007C00013050D0E83A54700EF00007B9305000085
:1007D000130584F9EF00407A83A701841305CC0F39
:1007E00083A58700EF00407993051000130584F975
:1007F000EF00807883A7018413058A1183A5C700C1
:10080000EF00807793052001130584F9EF00C0768F
:1008100083A501841385491393850501EF00C075F5
:1008200013050915EF00500B832541003735008073
:100830001305451DEF00407493055000130584F91E
:10084000EF00807393973A00B38A574137350080A1
:10085000B3856A411305051FEF0000729305D000B0
:10086000130584F9EF00407183258100373500803E
:100870001305C520EF00407093057000130584F93F
:10088000EF00806F8325C100373500801305852276
:10089000EF00806E93051000130584F9EF00C06D22
:1008A000373500809305010113054524EF00C06C26
:1008B0003735008013050526EF001002373500801C
:1008C0009305010313054529EF00006B37350080C0
:1008D0001305052BEF0050001305A000EF00803D2D
:1008E00003A7C18283A581829307301FB385E540AA
:1008F00023A2B18263D2B71A373500801305C533FE
:10090000EF00806703A54182EF20400F130405002C
:10091000EF20401FB737008003A6875D83A6C75D21
:10092000EF10400403A6818083A6C180EF00D0169B
:10093000EF20002B23A0A18203A5018193050400D1
:10094000EF10005E23AEA18037350080130505351A
:10095000EF00806203A54182EF20400A9305050065
:1009600003A54181EF10C05B93040500EF20000256
:1009700013040500EF20800893050500138504008B
:10098000EF10103C83A58181EF10100CEF200000C8
:1009900093040500373500809305040013050538DE
:1009A000EF00805D9307900063DA97103735008081
:1009B0009385040013054538EF00005C1305A00083
:1009C000EF00402F93178400B3E79700370700F03C
:1009D0002322F7008320C1080324810883244108CF
:1009E000032901088329C107032A8107832A4107B4
:1009F000032B0107832BC106032C8106832C4106A0
:100A0000032D0106832DC105130101096780000034
:100A10009305C10013050000EF00001B032E040026
:100A200003234400832884000328C4000325040111
:100A300083254401032684018356C4010347E4014E
:100A400083C74183130B1B002328C103232A6102A0
:100A5000232C1103232E01032320A1042322B104FC
:100A60002324C1042316D1042307E10423AE4183C8
:100A7000137BFB0F930A0A00E3F867B36FF01FB50F
:100A8000373500801305C5E9EF0000651305A000A8
:100A9000EF0040226FF0DF9F373500801305452EB1
:100AA000EF008063373500801305C531EF00C06269
:100AB0001305A000EF0000206FF0DFF11305000325
:100AC000EF00401F6FF09FEE13052500B305B50042
:100AD0002320B60067800000130756001308800C1F
:100AE0003308070313162600931727003305F50074
:100AF0002320D500232CE5062322D500B307C80008
:100B0000B387F50083A6070123AAE70023ACE7001B
:100B10001387160023A8E70083270500B385050186
:100B2000B385C50037160000B305B60023AAF5FA51
:100B30001307500023AEE182678000001375F50FA4
:100B400093F5F50F6306B5001305000067800000FC
:100B5000A38AA1821305100067800000130101FF22
:100B60002324810023229100232611001304050071
:100B70009384050083C5340003452400EFF01FFC77
:100B8000E31A05FE9385040013050400EF000059E5
:100B9000930700006358A0001307A00023AEE18272
:100BA000930710008320C1000324810083244100A7
:100BB0001385070013010101678000001305E5FF9D
:100BC0001335150067800000130101FF2324810005
:100BD00023229100130405002326110093840500AD
:100BE000EFF0DFFD93070400631405009307300066
:100BF00023A0F400130710006308E402630C04024E
:100C0000930720006304F404130740006314E40016
:100C100023A0F4008320C100032481008324410029
:100C2000130101016780000003A7C18393074006F9
:100C300063DAE7028320C1000324810023A00400BB
:100C40008324410013010101678000008320C1005B
:100C50000324810023A0E400832441001301010147
:100C6000678000009307300023A0F4006FF09FFA24
:100C7000B70701F003A54700135505011375F50FDC
:100C800067800000130101FF232481002326110047
:100C900013040500EFF0DFFDE30E05FEB70701F0DA
:100CA00023A087008320C1000324810013010101D8
:100CB000678000006FF01FFD130101FF23248100F6
:100CC000232611001304050003450500630A0500EF
:100CD00013041400EFF01FFE03450400E31A05FEA1
:100CE0008320C100032481001301010167800000FB
:100CF0001375F50F6FF01FFC130101FD2324810212
:100D0000232611022322910213040500634C0504DB
:100D100093040100130504001307A00013840400CA
:100D200063140500631E9400B377E50213041400F6
:100D3000938707033355E502A30FF4FE6FF05FFEC0
:100D40001304F4FF03450400EFF09FFAE31A94FE46
:100D50008320C10203248102832441021301010381
:100D600067800000E38605FA1305D002EFF05FF814
:100D7000330480406FF0DFF9130101FD9377F50034
:100D8000232611022324810223229102930690003C
:100D90001387770363E4F60013870703935745002F
:100DA00093F7F7002300E1009306900013870703F1
:100DB00063F4F600138777039357850093F7F700E2
:100DC000A300E100930690001387070363F4F60085
:100DD000138777039357C50093F7F7002301E100CA
:100DE000930690001387070363F4F60013877703D5
:100DF0009357050193F7F700A301E10093069000D4
:100E00001387070363F4F6001387770393574501AD
:100E100093F7F7002302E10093069000138707037E
:100E200063F4F600138777039357850193F7F70070
:100E3000A302E100930690001387070363F4F60012
:100E4000138777031355C5012303E10013079000AF
:100E5000930705036374A70093077503A303F100C9
:100E600013048100930401001304F4FF03450400FC
:100E7000EFF01FE8E31A94FE8320C10203248102ED
:100E800083244102130101036780000083A781844A
:100E9000B386A70023A4D18437050040370700019B
:100EA00013050500130707803385A7006374D70077
:100EB00073001000678000009308F6FF630C060AB9
:100EC0009307450093864500B3B7F500B336D500C8
:100ED00093C7170093C6160013B79800B3E7D7005F
:100EE00013471700B377F70063880706B367B500A9
:100EF00093F73700639207061378C6FF93870500C0
:100F0000130705003308B80083A60700130747003E
:100F100093874700232ED7FEE39807FF9377C6FFFA
:100F20003307F500B385F500B388F8406304F60491
:100F300083C705002300F700638E080283C61500EF
:100F400093071000A300D7006386F80283C725002B
:100F50002301F700678000003306C50093070500F2
:100F60009385150003C7F5FF93871700A38FE7FE4E
:100F7000E398C7FE67800000130101FB2322910262
:100F8000232611022324810223202103232E310151
:100F9000232C4101232A5101930405000345050038
:100FA0002322F10493074103232AB102232CC10217
:100FB000232ED1022320E104232401052326110539
:100FC0002326F1006304050813040000130930060A
:100FD00093093007130A4006930A50076F008001F7
:100FE000EFF01FD113041400B387840003C507007A
:100FF000630E05049307500213078007E312F5FE02
:101000006F0040016386370763804709638C570987
:101010006388E70A13041400B387840083C70700BA
:10102000E38207FCE39027FF8327C1001304140029
:1010300003A50700938747002326F100EFF05FCB5D
:10104000B387840003C50700E31605FA8320C102B5
:101050000324810283244102032901028329C1015F
:10106000032A8101832A41011301010567800000E1
:101070008327C10003A50700938747002326F100BB
:10108000EFF09FC36FF01FF68327C1009305100098
:1010900003A50700938747002326F100EFF0DFC583
:1010A0006FF05FF48327C1009305000003A50700DC
:1010B000938747002326F100EFF01FC46FF09FF2E3
:1010C0008327C10003A50700938747002326F1006B
:1010D000EFF09FCA6FF01FF1130101FF232481007D
:1010E000232611001304050003450500630A0500CB
:1010F00013041400EFF01FBC03450400E31A05FEBF
:101100001305A000EFF01FBB8320C1000324810062
:101110001305000013010101678000003367B5006B
:101120009303F0FF1377370063100710B7877F7FB3
:101130009387F7F70326050083A60500B372F60030
:101140003363F600B382F200B3E26200639272107E
:101150006316D6080326450083A64500B372F60041
:101160003363F600B382F200B3E26200639E720C56
:101170006316D6060326850083A68500B372F600A3
:101180003363F600B382F200B3E262006398720C3C
:101190006316D6040326C50083A6C500B372F60005
:1011A0003363F600B382F200B3E262006392720C22
:1011B0006316D6020326050183A60501B372F60065
:1011C0003363F600B382F200B3E26200639C720AFA
:1011D0001305450193854501E30ED6F41317060167
:1011E00093970601631EF7001357060193D7060174
:1011F0003305F7409375F50F639005026780000093
:101200001357070193D707013305F7409375F50F7F
:1012100063940500678000001377F70F93F7F70FCB
:101220003305F740678000000346050083C60500CC
:1012300013051500938515006314D600E31606FE0A
:101240003305D640678000001305450093854500AF
:10125000E31CD6FC13050000678000001305850021
:1012600093858500E312D6FC13050000678000001B
:101270001305C5009385C500E318D6FA13050000D1
:10128000678000001305050193850501E31ED6F86C
:101290001305000067800000130101FD13D845010C
:1012A00023229102232E3101232C410123286101A5
:1012B000232671019394C500232611022324810261
:1012C00023202103232A51011378F87F130B0500F3
:1012D000930B0600138A060093D4C40093D9F5013A
:1012E0006302080A9307F07F6300F810935AD50150
:1012F00093943400B3E49A00B70A8000B3EA54012F
:1013000013143500130918C0130B000013554A01BC
:101310009314CA001378F57F93D4C400135AFA01CA
:10132000630208109307F07F6302F81613953400E8
:1013300093D7DB0133E5A700B7048000B3649500C1
:10134000139F3B00130518C09307000013172B00D1
:101350003367F7001307F7FF9306E00033C6490130
:101360003308A94063E0E616972600009386060836
:10137000131727003307D700032707003307D700C9
:1013800067000700B3EAA400638E0A0663800404C2
:1013900013850400EF10D01C930755FF1307C001FD
:1013A000634CF702930AD001130485FFB38AFA4015
:1013B000B3948400B35A5B01B3EA9A0033148B00F0
:1013C0001308D0C03309A8406FF01FF4EF10501974
:1013D000130505026FF05FFC930485FDB31A9B00B3
:1013E000130400006FF0DFFDB3EAA40063840A0277
:1013F00013040500938A04001309F07F130B3000D7
:101400006FF0DFF01304000013090000130B10004D
:101410006FF0DFEF130400001309F07F130B2000BF
:101420006FF0DFEE33EF7401630E0F066380040488
:1014300013850400EF10D012930755FF1307C00166
:10144000634EF7021307D001130F85FF3307F740F0
:10145000B394E40133D7EB00B3649700339FEB01FF
:101460001306D0C03305A6406FF01FEE13850B00A6
:10147000EF10100F130505026FF01FFC930485FD9C
:10148000B3949B00130F00006FF09FFD33EF7401C6
:1014900063020F02138F0B001305F07F93073000D8
:1014A0006FF0DFEA930400001305000093071000BB
:1014B0006FF0DFE9930400001305F07F930720002D
:1014C0006FF0DFE863E6540163989A346366E435AD
:1014D0009396FA01135714009317F40193DA1A0044
:1014E00033E4E6001395840093548F0133E5A400A0
:1014F000135E0501B3D8CA03131305011353030187
:101500001357040193158F00B3F4CA03938F080097
:10151000B3061303939A040133675701637ED70020
:101520003307A700938FF8FF6368A7006376D7009F
:10153000938FE8FF3307A7003307D740B35EC70395
:1015400013140401135404013377C70393860E0068
:10155000B308D303131707013367E400637E170151
:101560003307A7009386FEFF6368A7006376170121
:101570009386EEFF3307A700939F0F01B3EFDF00C1
:10158000B7060100330417419388F6FF13DF0F01FC
:1015900033F71F0193DE0501B3F81501B3031703F9
:1015A000B3041F033387EE02B302DF03330F970048
:1015B00013D703013307E70163749700B382D200A6
:1015C000135F0701330F5F00B70201009382F2FF40
:1015D000B376570093960601B3F35300B3867600B3
:1015E0006368E40193840F006314E40563F2D70495
:1015F000B387B70033B7B7003307A7003304E4005D
:101600009384FFFF636685006314850263E2B7027B
:101610006366E401631E8F0063FCD700B387B700E5
:1016200033B7B7003307A7009384EFFF3304E40018
:10163000B386D7403304E441B3B7D7003304F44052
:10164000130FF0FF63048512335FC40313D7060141
:101650003374C403B307E303131404013364870032
:1016600013070F00637EF4003304A4001307FFFF89
:101670006368A4006376F4001307EFFF3304A4004B
:101680003304F440335FC4039396060193D60601F6
:101690003374C40393070F003303E30313140401EB
:1016A00033E48600637E64003304A4009307FFFFE5
:1016B0006368A400637664009307EFFF3304A4001B
:1016C000131707013367F7009317070193D7070133
:1016D0003304644013530701338E1703B308130315
:1016E00033836E02B38EFE0293570E01B38E1E013A
:1016F000B387D70163F61701B70601003303D300A0
:1017000093D80701B3886800370301001303F3FF80
:10171000B3F6670093960601337E6E00B386C6016A
:1017200063681401631C1423130F0700638006040D
:1017300033048500130FF7FF6364A402636614018A
:10174000631C142163F0D50293971500B3B5B7005D
:101750003385A500130FE7FF3304A400938507002A
:10176000631414016384B600136F1F001307F83F5E
:101770006352E01093777F00638007029377FF0046
:1017800093064000638AD70093064F0033BFE601FB
:10179000B384E401138F06009397740063DA0700A3
:1017A000B70700FF9387F7FFB3F4F400130708406F
:1017B0009307E07F63C2E718135F3F009397D4015C
:1017C000B3E7E70113D534001315C5001377F77F8E
:1017D000131747018320C102032481021355C5005A
:1017E0003365E5001316F6013367C5008324410213
:1017F000032901028329C101032A8101832A4101AE
:10180000032B0101832BC1001385070093050700FB
:1018100013010103678000001308F8FF930700001D
:101820006FF05FCC1386090093840A00130F040045
:1018300093070B00130720006380E71013073000A5
:101840006382E70E13071000E392E7F2130500002E
:10185000930700006F00400913060A006FF09FFD18
:10186000B7040800130F00001306000093073000B0
:101870006FF05FFC130510003305E540930780030C
:10188000E3C6A7FC9307F00163C4A7061308E84169
:10189000B39704013357AF0033180F01B3E7E700E4
:1018A00033380001B3E7070133D5A40013F77700FD
:1018B0006300070213F7F70093064000630AD7009E
:1018C00013874700B337F7003305F5009307070088
:1018D00013178500634A07061317D50193D73700FE
:1018E000B367F70013553500130700006FF0DFED05
:1018F000930710FEB387E74093060002B3D7F400C6
:10190000130700006306D5001308E843339704016A
:10191000336FE701333FE001B3E7E7011305000050
:101920006FF0DFF837050800930700001307F07F1A
:10193000130600006FF05FE9130500009307000035
:101940001307F07F6FF05FE81305000093070000B6
:10195000130710006FF05FE713070F00130F070066
:101960006FF09FE0130101FD232E310193D9450152
:101970002324810223229102232C4101232A510195
:10198000232861019394C5002326110223202103FB
:101990002326710193F9F97F13040500130B060048
:1019A000938A060093D4C40013DAF5016384090A0C
:1019B0009307F07F6382F9109357D5019394340015
:1019C000B3E49700B7078000B3E4F40013193500BF
:1019D000938919C0930B000013D54A011394CA00D0
:1019E0001375F57F1354C40093DAFA0163020510EE
:1019F0009307F07F6302F5169357DB01131434004D
:101A000033E48700B70780003364F400130515C082
:101A100093173B001307000093962B00B3E6E600F4
:101A20003385A9009386F6FF9305E00033465A01FB
:101A30001308150063EED514972500009385C59E05
:101A400093962600B386B60083A60600B386B6003A
:101A50006780060033E9A400630C09066380040470
:101A600013850400EF10C02F130755FF9307C00123
:101A700063CCE7029307D001130985FFB387E740E2
:101A8000B3942401B357F400B3E49700331924014D
:101A90009309D0C0B389A9406FF0DFF3EF10402C59
:101AA000130505026FF05FFC930485FDB3149400E9
:101AB000130900006FF0DFFD33E9A400630209029F
:101AC000130905009309F07F930B30006FF0DFF0EE
:101AD0009304000093090000930B10006FF0DFEFF8
:101AE000930400009309F07F930B20006FF0DFEE6A
:101AF000B3676401638E07066300040413050400E2
:101B0000EF100026930655FF9307C00163CED7025E
:101B10001307D001930785FF3307D7403314F40030
:101B20003357EB0033648700B317FB001307D0C0B3
:101B30003305A7406FF01FEE13050B00EF10402296
:101B4000130505026FF01FFC130485FD33148B0091
:101B5000930700006FF09FFDB36764016382070283
:101B600093070B001305F07F130730006FF0DFEAD7
:101B70001304000013050000130710006FF0DFE9E5
:101B8000130400001305F07F130720006FF0DFE857
:101B9000370F0100930EFFFF1357090193D8070178
:101BA0003379D901B3F7D701B3852803B386270367
:101BB000B30FF7023383F50193D50601B3856500B2
:101BC000330E170363F4F501330EEE0193D30501D1
:101BD000B3F5D501B3F6D601135F0401B372D40196
:101BE00093950501B385D500B30E5702B386220342
:101BF00033092F033303D90113D9060133096900CF
:101C00003307E7036376D901370301003307670021
:101C1000935E0901B7090100B38EEE001387F9FF47
:101C20003379E900B3F6E60013D40401131909016E
:101C3000B3F4E4003309D90033879702B383230157
:101C40003303F402B3869802B3878802B388660030
:101C500093560701B386160163F46600B387370114
:101C600093D80601B7090100B38FF8009387F9FFF5
:101C7000B3F6F6003377F700B38892029396060125
:101C8000B386E600B3075402B3049F0233038F0206
:101C9000B384F40013D40801B304940063F4F40093
:101CA00033033301B70701009387F7FF33F7F400DD
:101CB000B3F8F80013170701330E7E00330717013E
:101CC00033392E013307D70133042701330EDE00E9
:101CD000B336DE00B308F401338FD8003337D701B1
:101CE000333424013364870093D40401B3B8F8017A
:101CF000B336DF0033049400B3E6D8003304D400D5
:101D00003304640093577F01131494003364F40088
:101D100093179E00B3E7B700B337F000135E7E0160
:101D200013179F00B3E7C701B3E7E7001317740069
:101D30006352071013D7170093F71700B367F70024
:101D40001317F401B3E7E700135414009306F83FA8
:101D50006356D00E13F777006300070213F7F700FE
:101D600093054000630AB70013874700B337F700B5
:101D70003304F4009307070013177400635A070035
:101D8000370700FF1307F7FF3374E400930608409A
:101D90001307E07F6346D71613D737009317D40194
:101DA000B3E7E700135434001314C40013F7F67FAD
:101DB000131747011354C4003364E4001316F601EB
:101DC0003367C4008320C1020324810283244102BB
:101DD000032901028329C101032A8101832A4101C8
:101DE000032B0101832BC100138507009305070016
:101DF000130101036780000013060A001384040026
:101E00009307090013870B0093062000630AD70E7F
:101E100093063000630CD70C93061000E318D7F23A
:101E200013040000930700006F00800813860A0067
:101E30006FF09FFD130805006FF05FF19305100030
:101E4000B385D54013078003E34CB7FC1307F001BB
:101E50006344B7061308E84133170401B3D6B7004B
:101E6000B39707013367D700B337F000B367F700C4
:101E70003354B40013F777006300070213F7F70039
:101E800093064000630AD70013874700B337F70073
:101E90003304F4009307070013178400634A07060E
:101EA0001317D40193D73700B367F70013543400E6
:101EB000930600006FF05FEF130710FE3307D74063
:101EC000130500023357E400930600006386A50063
:101ED0001308E843B3160401B3E7F600B337F00084
:101EE000B367F700130400006FF0DFF83704080051
:101EF000930700009306F07F130600006FF0DFEAFF
:101F000013040000930700009306F07F6FF0DFE9F1
:101F10001304000093070000930610006FF0DFE841
:101F2000130101FE232A91009354750123282101F6
:101F3000232631012324410193199500232E1100FA
:101F4000232C81002322510193F4F40F138A0500FE
:101F500093D999001359F501638604089307F00F8C
:101F60006382F40A93993900B7070004B3E9F900D2
:101F7000938414F8930A000013557A0113149A00FD
:101F80001375F50F13549400135AFA01630C0508E6
:101F90009307F00F6308F50A13143400B707000421
:101FA0003364F400130515F89307000093962A0094
:101FB000B3E6F6009386F6FF1307E00033464901C7
:101FC0003385A4406360D70A97150000938585493F
:101FD00093962600B386B60003A706003307B70022
:101FE00067000700638A090213850900EF00505754
:101FF0009307B5FF9304A0F8B399F900B384A44004
:102000006FF05FF79304F00F930A2000E38609F660
:10201000930A30006FF05FF693040000930A1000FB
:102020006FF09FF5630A040213050400EF0050539C
:102030009307B5FF3314F4009307A0F83385A74046
:102040006FF09FF61305F00F93072000E30004F6EE
:10205000930730006FF09FF5130500009307100001
:102060006FF0DFF41318540063F6890E1305F5FFC3
:10207000930600001354080133D38902B707010007
:102080009387F7FFB377F80093D6060133F78902F9
:1020900093050300B38867021317070133E7E600CF
:1020A000637E1701330707019305F3FF6368070198
:1020B000637617019305E3FF3307070133071741E1
:1020C000B358870233778702B38617039317070144
:1020D0001387080063FED700B38707011387F8FF53
:1020E00063E8070163F6D7001387E8FFB3870701AA
:1020F00013940501B387D7403364E400B337F0008D
:102100003364F4001307F507635EE00C9377740003
:10211000638A07009377F400930640006384D70036
:10212000130444009317440063DA0700B70700F86C
:102130009387F7FF3374F400130705089307E00F44
:102140001354340063D4E704130400001307F00FA2
:102150006F00C0039396F90193D919006FF09FF1B6
:10216000130609001384090093870A00130720004F
:10217000E38CE7FC130730006380E70C13071000C3
:10218000E392E7F81304000013070000131494000F
:102190001377F70F13177701135494003364E40097
:1021A0001315F6013365A4008320C10103248101C6
:1021B00083244101032901018329C100032A8100ED
:1021C000832A4100130101026780000013060A0000
:1021D0006FF0DFF93704400013060000930730006A
:1021E0006FF0DFF893071000B387E7401307B001E3
:1021F000E34AF7F81305E509B357F4003314A400D4
:102200003334800033E4870093777400638A0700D7
:102210009377F400130740006384E700130444003D
:102220009317540013543400E3D007F6130400004E
:10223000130710006FF09FF5370440001307F00FED
:10224000130600006FF09FF4130101FE2328210103
:1022500013597501232A91002326310123225101AC
:1022600093149500232E1100232C81002324410177
:102270001379F90F938A050093D494009359F501CB
:10228000630809089307F00F6304F90A9394340074
:10229000B7070004B3E4F400130919F8130A0000A7
:1022A00013D57A0113949A001375F50F1354940003
:1022B00093DAFA01630E05089307F00F630AF50A33
:1022C00013143400B70700043364F400130515F841
:1022D0009307000013172A003367F7003305A9009E
:1022E0001307F7FF9305E000B3C659011306150065
:1022F00063E0E50A971500009385851A13172700F8
:102300003307B700032707003307B700670007004C
:10231000638A040213850400EF0090249307B5FF3D
:102320001309A0F8B394F4003309A9406FF01FF724
:102330001309F00F130A2000E38404F6130A300097
:102340006FF01FF613090000130A10006FF05FF51D
:10235000630A040213050400EF0090209307B5FF01
:102360003314F4009307A0F83385A7406FF05FF6AD
:102370001305F00F93072000E30E04F493073000D9
:102380006FF05FF513050000930710006FF09FF4E6
:10239000B70701001383F7FF13D704019355040116
:1023A000B3F4640033746400B38884023308870292
:1023B0003304B702B385950293D40801B3850501B0
:1023C000B384B40063F404013304F400B3F764008D
:1023D00093970701B3F86800B38717011397670055
:1023E00093D404013337E00093D7A70133848400EA
:1023F000B367F700131464003364F40093174400C8
:1024000063DC0708935714001374140033E4870047
:102410001307F6076356E00893777400638A070092
:102420009377F400930540006384B70013044400DD
:102430009317440063DA0700B70700F89387F7FFA4
:102440003374F400130706089307E00F13543400A5
:1024500063D8E70A130400001307F00F6F00400A67
:10246000938609001384040093070A0013072000D1
:10247000E382E7FE13073000638EE70613071000C0
:10248000E398E7F813040000130700006F0040070B
:1024900093860A006FF09FFD130605006FF05FF74B
:1024A00093071000B387E7401307B001E34CF7FC34
:1024B0001306E609B357F4003314C4003334800024
:1024C00033E4870093777400638A07009377F400FE
:1024D000130740006384E70013044400931754007B
:1024E00013543400E3D207FA13040000130710005A
:1024F0006F000001370440001307F00F930600003F
:10250000131494001377F70F1317770113549400E3
:102510003364E4001395F6013365A4008320C10100
:102520000324810183244101032901018329C1007E
:10253000032A8100832A4100130101026780000001
:1025400037078000130101FF1307F7FF935675014A
:1025500013D87501B377A700232291003377B70012
:102560002320210193F6F60F1378F80F232611008C
:10257000232481001306F00F9354F50113890600FC
:10258000939737001305080093D5F501131737000B
:102590006314C8006314070093C515003386064111
:1025A000639E9516635CC008631C080463060734C9
:1025B0001306F6FF631E0602B387E70013850600C5
:1025C00013975700635C0710130515001307F00FEE
:1025D000630EE5323707007E93F617001307F7FF07
:1025E00093D71700B3F7E700B3E7D7006F00000FEA
:1025F0009305F00F639EB6001305F00F6F00000EF9
:102600009305F00FE38AB6FEB70500043367B70001
:102610009305B00163D6C500130710006FF0DFF912
:10262000930500023355C7003386C5403317C700F2
:102630003337E0003367E5006FF01FF863060606E6
:102640003306D84063940602638C072A1306F6FF0C
:1026500063160600B387E7006FF09FF69306F00F4E
:10266000631ED800930707006FF01FF99306F00F61
:10267000E30AD8FEB7060004B3E7D7009306B0011B
:1026800063D6C600930710006FF0DFFC93060002CC
:10269000B386C640B3D5C700B397D700B337F000B1
:1026A000B3E7F5006FF01FFB138616001375E60FF6
:1026B000631A050463920604638407246300070217
:1026C000B387E70013975700635A0700370700FCEA
:1026D0001307F7FFB3F7E7001305100013F77700B0
:1026E0006308072213F7F700930640006302D7221E
:1026F000938747006F00C021E38607F6E30E07EEDD
:102700006F0040179306F00F6300D620B387E700F1
:1027100093D71700130506006FF05FFC6358C008DD
:102720006318080413850600E30A07FA1306F6FF88
:1027300063120602B387E74013975700E35007FA86
:10274000370400041304F4FF33F487001309050071
:102750006F0080149305F00F1305F00FE380B6F8B7
:102760009305B00163D2C502130710006F00400348
:102770009305F00F1305F00FE382B6F6B7050004DA
:102780003367B7006FF0DFFD930500023355C700D4
:102790003386C5403317C7003337E0003367E500A1
:1027A000B387E740138506006FF01FF9630A06063A
:1027B0003306D84063980602638007081306F6FFC5
:1027C00063180600B307F740938405006FF0DFF647
:1027D0009306F00F6310D802930707009384050057
:1027E0006FF09FE19306F00FE308D8FEB7060004F0
:1027F000B3E7D7009306B00163D6C6009307100075
:102800006FF05FFC93060002B386C64033D8C70062
:10281000B397D700B337F000B367F8006FF09FFAB3
:10282000138516001375E50F631E050463900604F7
:102830006398070063060702930707006F00800193
:10284000E30E07E8B386E740139656006358060088
:10285000B307F740938405006FF05FE863900612BA
:1028600093070000930400006F00800AE39807E8D4
:10287000E31407F693040000B70700021305F00FF6
:102880006F0000093384E7409316540063D40604B4
:102890003304F7409384050013050400EF00404C17
:1028A0001305B5FF3314A400634E250333052541FA
:1028B0001305150013070002B357A4003305A74002
:1028C0003314A40033348000B3E7870013050000FD
:1028D0006FF0DFE0E31204FC930700001305000033
:1028E0006FF05FF8B70700FC9387F7FF3305A94047
:1028F000B377F4006FF09FDE138506006FF01FDEE4
:10290000930707006FF09FDD1305F00F930700009A
:1029100013975700635E0700130515001307F00FA8
:102920006302E506370700FC1307F7FFB3F7E7007C
:102930001307F00F93D737006318E500638607008D
:10294000B7074000930400001375F50F8320C10002
:1029500003248100939797001317750113D59700EF
:102960009394F4013365E500336595000329010074
:102970008324410013010101678000009387060052
:102980006FF0DFD5930700006FF09FFA37068000E5
:10299000135775019307F6FF1377F70F9305E007B9
:1029A000B3F7A7009356F50163F6E5049305D00944
:1029B00063FAE500370500801345F5FF3385A6006F
:1029C0006780000033E5C7009307500963DCE70028
:1029D0001307A7F63315E500638006023305A04010
:1029E00067800000930760093387E7403355E500AF
:1029F0006FF09FFE1305000067800000130101FFC8
:102A0000232611002324810023229100930705002F
:102A10006304050E1357F5413344A7003304E44023
:102A20009354F50113050400EF0080339307E00988
:102A3000B387A740130760096342F70413078000B8
:102A40006356A700130585FF3314A40013149400E4
:102A500093F7F70F93977701135494001395F401AC
:102A60003364F4003365A4008320C1000324810093
:102A700083244100130101016780000013079009BE
:102A80006350F702130750003307A7409306B501C0
:102A90003357E4003314D4003334800033648700A8
:102AA000130750006356A7001307B5FF3314E40063
:102AB000370700FC1307F7FF937674003377E400C1
:102AC000638A06001374F400930640006304D40084
:102AD000130747009316570063DC0600B70700FC96
:102AE0009387F7FF3377F7009307F009B387A74081
:102AF000135437006FF09FF5930400001304000097
:102B00006FF0DFF493577501130101FF93F7F70F8F
:102B10002324810023229100131495009354F5017E
:102B200013851700232611001375E50F1354940025
:102B30006304050413850738935734001314D40134
:102B40009397C7001375F57F1315450193D7C700F9
:102B5000B3E7A7008320C10013050400032481000C
:102B60009394F40133E79700930507008324410011
:102B7000130101016780000063940704E30204FC71
:102B800013050400EF00C01D9307A00063C2A70255
:102B90009307B000B387A74013075501B357F4005C
:102BA0003314E400130790383305A7406FF05FF942
:102BB000930755FFB317F400130400006FF09FFE56
:102BC00093070000630A0400935734003707080096
:102BD0001314D401B3E7E7001305F07F6FF05FF63D
:102BE0001396C5001356C60013D845019317360037
:102BF0001378F87F1356D5013366F6009307180053
:102C000093F7E77F93D5F501131735006386070A1D
:102C1000930608C89307E00F63C2D70C6340D0083F
:102C2000930790FE63CCF610B70780001305E00110
:102C30003366F6003305D5409307F00163C8A70259
:102C4000130828C8B3170701B337F000331606017D
:102C50003355A700B3E7C700B367F500930600003C
:102C600013F77700630007086F00C00D9307E0FFBC
:102C7000B386D74093070002B356D60093080000EE
:102C80006306F500130828CAB3180601B3E7E80085
:102C9000B337F000B3E7F6006FF05FFC1315650083
:102CA0003335A000131636009357D7013366C5009D
:102CB000B367F6006FF0DFFAB367E600631608004B
:102CC000B337F0006FF09FF99306F00F638C0700A5
:102CD00013163600B70700026FF09FFD9307000040
:102CE0009306F00F13975700635E07009386160054
:102CF0001307F00F6382E606370700FC1307F7FFA0
:102D0000B3F7E7001307F00F93D737006398E60097
:102D100063860700B707400093050000939797006C
:102D200093F6F60F9396760193D797009395F50156
:102D3000B3E7D70033E5B7006780000093071000C2
:102D40009306000013F7F70013064000E30CC7F8E2
:102D5000938747006FF01FF9930700006FF09FFA09
:102D6000B7070100637AF5029307F00FB3B7A70026
:102D700093973700130700023307F740B357F50066
:102D80001705000013058575B307F50003C5070097
:102D90003305A74067800000370700019307000153
:0C2DA000E36AE5FC930780016FF0DFFCA4
:102DAC00130101FE232E1100232C8100B70700F024
:102DBC001304F0FF23A487001307100023A2E700DD
:102DCC0093078000130501002320F10093075003A3
:102DDC002326F1002322010023240100EFD08FB61B
:102DEC00EFD0CFB7EFD0CFB8370702F0B70701005D
:102DFC0023228704938717002320F704EFD00FD7E3
:102E0C008320C10103248101130500001301010279
:042E1C0067800000CB
:102E20004448525953544F4E452050524F475241F7
:102E30004D2C20534F4D4520535452494E470000CE
:102E40004468727973746F6E652042656E63686D55
:102E500061726B2C2056657273696F6E20322E3151
:102E600020284C616E67756167653A204329000030
:102E700050726F6772616D20636F6D70696C65640D
:102E80002077697468202772656769737465722793
:102E900020617474726962757465000050726F67A6
:102EA00072616D20636F6D70696C65642077697401
:102EB000686F75742027726567697374657227205F
:102EC000617474726962757465000000506C6561AC
:102ED0007365206769766520746865206E756D621C
:102EE0006572206F662072756E73207468726F75DC
:102EF0006768207468652062656E63686D61726BD7
:102F00003A200000457865637574696F6E207374AC
:102F1000617274732C2025642072756E732074683E
:102F2000726F756768204468727973746F6E650A92
:102F300000000000457865637574696F6E20656EEA
:102F40006473000046696E616C2076616C75657310
:102F5000206F6620746865207661726961626C65B5
:102F600073207573656420696E20746865206265DE
:102F70006E63686D61726B3A00000000496E745FA9
:102F8000476C6F623A202020202020202020202023
:102F90002025640A0000000020202020202020207E
:102FA00073686F756C642062653A20202025640A7E
:102FB00000000000426F6F6C5F476C6F623A202028
:102FC00020202020202020202025640A000000004E
:102FD00043685F315F476C6F623A202020202020D9
:102FE000202020202025630A00000000202020202F
:102FF0002020202073686F756C642062653A202061
:103000002025630A0000000043685F325F476C6F51
:10301000623A202020202020202020202025630A22
:10302000000000004172725F315F476C6F625B3875
:103030005D3A2020202020202025640A0000000086
:103040004172725F325F476C6F625B385D5B375D08
:103050003A2020202025640A0000000020202020A3
:103060002020202073686F756C642062653A2020F0
:10307000204E756D6265725F4F665F52756E73208C
:103080002B203130000000005074725F476C6F627B
:103090002D3E000020205074725F436F6D703A2007
:1030A00020202020202020202025640A000000006D
:1030B000202020202020202073686F756C642062FF
:1030C000653A20202028696D706C656D656E7461AD
:1030D00074696F6E2D646570656E64656E74290029
:1030E000202044697363723A202020202020202071
:1030F000202020202025640A000000002020456EAA
:10310000756D5F436F6D703A2020202020202020B5
:103110002025640A000000002020496E745F436F80
:103120006D703A2020202020202020202025640AB5
:103130000000000020205374725F436F6D703A20CE
:1031400020202020202020202025730A00000000BD
:10315000202020202020202073686F756C6420625E
:10316000653A2020204448525953544F4E45205030
:10317000524F4752414D2C20534F4D4520535452EE
:10318000494E47004E6578745F5074725F476C6FAC
:10319000622D3E00202020202020202073686F75A3
:1031A0006C642062653A20202028696D706C656D22
:1031B000656E746174696F6E2D646570656E6465AB
:1031C0006E74292C2073616D652061732061626FBC
:1031D00076650000496E745F315F4C6F633A202062
:1031E00020202020202020202025640A000000002C
:1031F000496E745F325F4C6F633A2020202020209C
:10320000202020202025640A00000000496E745F01
:10321000335F4C6F633A2020202020202020202084
:103220002025640A00000000456E756D5F4C6F63D9
:103230003A20202020202020202020202025640A41
:10324000000000005374725F315F4C6F633A2020BE
:1032500020202020202020202025730A00000000AC
:10326000202020202020202073686F756C6420624D
:10327000653A2020204448525953544F4E4520501F
:10328000524F4752414D2C20312753542053545212
:10329000494E47005374725F325F4C6F633A20208F
:1032A00020202020202020202025730A000000005C
:1032B000202020202020202073686F756C642062FD
:1032C000653A2020204448525953544F4E452050CF
:1032D000524F4752414D2C2032274E4420535452D6
:1032E000494E47004D656173757265642074696D60
:1032F0006520746F6F20736D616C6C20746F206F2C
:10330000627461696E206D65616E696E6766756C69
:1033100020726573756C747300000000506C6561F9
:10332000736520696E637265617365206E756D6289
:103330006572206F662072756E730000436C6F6358
:103340006B206379636C65733D2564200A0000007F
:10335000444D49505320706572204D687A3A2020C0
:10336000202020202020202020202020202020205D
:1033700020202020202020202020202000000000CD
:1033800025642E00256400004448525953544F4E82
:10339000452050524F4752414D2C20312753542045
:1033A000535452494E4700004448525953544F4ECB
:1033B000452050524F4752414D2C2032274E442039
:1033C000535452494E4700004448525953544F4EAB
:1033D000452050524F4752414D2C20332752442014
:1033E000535452494E47000050E5FFFF64E4FFFF8D
:1033F00070E4FFFF64E4FFFF3CE5FFFF64E4FFFFD0
:1034000070E4FFFF50E5FFFF50E5FFFF3CE5FFFFE5
:1034100070E4FFFF3CE4FFFF3CE4FFFF3CE4FFFF00
:1034200078E4FFFFE4E9FFFFE4E9FFFF08EAFFFFBC
:10343000D8E9FFFFD8E9FFFFC8EAFFFF08EAFFFF6E
:10344000D8E9FFFFC8EAFFFFD8E9FFFF08EAFFFF5E
:10345000D4E9FFFFD4E9FFFFD4E9FFFFC8EAFFFF8B
:10346000E8ECFFFF24EDFFFF6CEDFFFF24EDFFFF15
:10347000D8EDFFFF24EDFFFF6CEDFFFFE8ECFFFF51
:10348000E8ECFFFFD8EDFFFF6CEDFFFF00EDFFFF65
:1034900000EDFFFF00EDFFFF74EDFFFFD0EFFFFF3A
:1034A000D0EFFFFFF4EFFFFFC8EFFFFFC8EFFFFF14
:1034B00058F0FFFFF4EFFFFFC8EFFFFF58F0FFFFEA
:1034C000C8EFFFFFF4EFFFFFC4EFFFFFC4EFFFFF04
:1034D000C4EFFFFF58F0FFFF0001020203030303E4
:1034E0000404040404040404050505050505050594
:1034F0000505050505050505060606060606060674
:10350000060606060606060606060606060606065B
:103510000606060606060606070707070707070743
:10352000070707070707070707070707070707072B
:10353000070707070707070707070707070707071B
:10354000070707070707070707070707070707070B
:1035500007070707070707070808080808080808F3
:1035600008080808080808080808080808080808DB
:1035700008080808080808080808080808080808CB
:1035800008080808080808080808080808080808BB
:1035900008080808080808080808080808080808AB
:1035A000080808080808080808080808080808089B
:1035B000080808080808080808080808080808088B
:1035C000080808080808080808080808080808087B
:0835D0000808080808080808B3
:1035D8000000000080842E41000000205FA002420D
:0C35E800F90215503353DE470000C842C2
:040000058000000077
:00000001FF
