:0200000480007A
:100000006F00000B1300000013000000130000003D
:100010001300000013000000130000001300000094
:10002000232E11FE232C51FE232A61FE232871FE6C
:100030002326A1FE2324B1FE2322C1FE2320D1FECC
:10004000232EE1FC232CF1FC232A01FD232811FDA2
:100050002326C1FD2324D1FD2322E1FD2320F1FD30
:10006000130101FCEF0040618320C103832281035F
:1000700003234103832301030325C1028325810256
:1000800003264102832601020327C1018327810140
:100090000328410183280101032EC100832E810022
:1000A000032F4100832F010013010104730020304E
:1000B0009721000093810187170100C4130181F487
:1000C0001715000013050506938581806308B500A8
:1000D00023200500130545006FF05FFF1715000092
:1000E000130545041301C1FF97150000938585038F
:1000F000630EB50083260500130545002320A100EB
:10010000E7800600032501006FF01FFE1301410088
:10011000371500001305058873104530372500009A
:100120001305858073100530EF00402F6F0000002D
:1001300037150000130505FE0F500570E31C05FE82
:0401400067800000D4
:10014400130101FE232E8100130401022326A4FEC1
:100154008327C4FE23A007008327C4FE23A407002B
:10016400130000000324C101130101026780000091
:10017400130101FE232E8100130401022326A4FE91
:10018400130000000324C101130101026780000071
:10019400130101FE232E8100130401022326A4FE71
:1001A4008327C4FE23A207008327C4FE1307F0FF9E
:1001B40023A0E700130000000324C101130101027E
:1001C40067800000130101FE232E81001304010245
:1001D4002326A4FE8327C4FE83A7470093D70701E1
:1001E40093F7F70F138507000324C10113010102DC
:1001F40067800000130101FE232E81001304010215
:100204002326A4FE8327C4FE83A7470093D7870130
:10021400138507000324C101130101026780000054
:10022400130101FE232E1100232C8100130401026B
:100234002326A4FE2324B4FE130000000325C4FED9
:10024400EFF05FF893070500E38A07FE8327C4FEF7
:10025400032784FE23A0E700130000008320C101CC
:10026400032481011301010267800000130101FED0
:10027400232E8100130401022326A4FE2324B4FEAA
:10028400832784FE03A7C7008327C4FE23A4E700B3
:10029400832784FE83A707001387F7FF832784FE41
:1002A40083A74700939787003367F700832784FE6B
:1002B40083A78700939707013367F7008327C4FE5A
:1002C40023A6E700130000000324C1011301010267
:1002D40067800000130101FE232E81001304010234
:1002E4002326A4FE8327C4FE83A7070093F72700D1
:1002F400B337F00093F7F70F138507000324C10108
:100304001301010267800000130101FE232E810006
:10031400130401022326A4FE8327C4FE130710003E
:1003240023A0E700130000000324C101130101020C
:1003340067800000130101FE232E1100232C81008D
:10034400130401022326A4FE8327C4FE23A007006E
:10035400130000000325C4FEEFF0DFF79307050048
:10036400E39A07FE130000008320C10103248101E6
:100374001301010267800000130101FE232E110006
:10038400232C8100130401022326A4FEB70700F0E6
:10039400370700FC130707F023A2E7008325C4FEF8
:1003A400B7170080138507FAEF00100A6F000000EA
:1003B400130101FF232611002324810013040101EA
:1003C400B70700F01307F00F23A2E700B717008068
:1003D400138507FCEF0050256F000000130101FF97
:1003E400232611002324810013040101B70700F020
:1003F4001307F00023A2E700B7170080138507FD59
:10040400EF009022130000008320C1000324810028
:100414001301010167800000130101FD232611026D
:10042400232481022322910223202103232E31013C
:10043400232C4101232A510113040103B70700F0BF
:100444001307F0FF23A4E700B70700F03707000401
:1004540023A2E700930780002328F4FC232A04FC4A
:10046400232C04FC93075003232EF4FC930704FD70
:1004740093850700370501F0EFF05FDF9304000078
:10048400B707004013890700B70700449389078022
:10049400B7070044938A0700B7070048138A070088
:1004A40093050900B7170080138547FEEF00C07954
:1004B40093850900B7170080138587FFEF00C07884
:1004C40093850A00B71700801385C700EF00C07733
:1004D40093050A00B717008013850702EF00C07662
:1004E400B717008013854703EF001014B387294121
:1004F40093850700B717008013854704EF00C07485
:10050400B717008013854706EF0010126F00000331
:1005140093F7140063980700B757555593875755B9
:100524006F00C000B7B7AAAA9387A7AA139724009D
:100534003307E9002320F7009384140093972400E1
:10054400B307F900E3E637FDB717008003A70712E6
:10055400930710006314F704B70700409387F7FF6D
:10056400B387F40093972700B307F900375755551D
:100574001307675523A0E700B70700409387F7FFE9
:10058400B387F40093972700B307F9009385070016
:10059400B717008013850707EF00006BEFF01FB952
:1005A40093040000B717008013850709EF00D007F4
:1005B4006F00C00893972400B307F90003AA07004B
:1005C40093F71400639C0702B75755559387575503
:1005D4006306FA02B75755551386575593050A0013
:1005E400B71700801385C709EF00006693972400AE
:1005F400B307F90013850700EFF01FD893F7140031
:10060400638C0702B7B7AAAA9387A7AA6306FA025C
:10061400B7B7AAAA1386A7AA93050A00B71700803A
:100624001385C709EF00406293972400B307F900CC
:1006340013850700EFF05FD493841400939724008C
:10064400B307F900E3E837F7EFF09FD61300000093
:100654008320C1020324810283244102032901026D
:100664008329C101032A8101832A41011301010362
:1006740067800000130101FF232681001304010198
:10068400B717008083A7071213C71700B717008096
:1006940023A0E7126FF05FD8130000000324C10009
:1006A4001301010167800000130101FE232E810064
:1006B400130401022326A4FE8327C4FE23A00700FB
:1006C4008327C4FE23A40700130000000324C101F0
:1006D4001301010267800000130101FE232E810033
:1006E400130401022326A4FE130000000324C10105
:1006F4001301010267800000130101FE232E810013
:10070400130401022326A4FE8327C4FE23A20700A8
:100714008327C4FE1307F0FF23A0E70013000000A3
:100724000324C1011301010267800000130101FECB
:10073400232E8100130401022326A4FE8327C4FE72
:1007440083A7470093D7070193F7F70F1385070093
:100754000324C1011301010267800000130101FE9B
:10076400232E8100130401022326A4FE8327C4FE42
:1007740083A7470093D78701138507000324C1018A
:100784001301010267800000130101FE232E1100F2
:10079400232C8100130401022326A4FE2324B4FE87
:1007A400130000000325C4FEEFF05FF89307050073
:1007B400E38A07FE8327C4FE032784FE23A0E70001
:1007C400130000008320C1010324810113010102ED
:1007D40067800000130101FE232E8100130401022F
:1007E4002326A4FE2324B4FE832784FE03A7C70084
:1007F4008327C4FE23A4E700832784FE83A707007E
:100804001387F7FF832784FE83A747009397870006
:100814003367F700832784FE83A787009397070134
:100824003367F7008327C4FE23A6E7001300000004
:100834000324C1011301010267800000130101FEBA
:10084400232E8100130401022326A4FE8327C4FE61
:1008540083A7070093F72700B337F00093F7F70F48
:10086400138507000324C1011301010267800000FE
:10087400130101FE232E8100130401022326A4FE8A
:100884008327C4FE1307100023A0E7001300000011
:100894000324C1011301010267800000130101FE5A
:1008A400232E1100232C8100130401022326A4FE0D
:1008B4008327C4FE23A00700130000000325C4FE01
:1008C400EFF0DFF793070500E39A07FE130000003B
:1008D4008320C10103248101130101026780000008
:1008E400130101FE232E1100232C810013040102A5
:1008F40093070500A307F4FE8347F4FE93850700DE
:10090400370501F0EFF05FE8130000008320C10118
:10091400032481011301010267800000130101FD1A
:100924002326810213040103232EA4FCB71700809D
:1009340083A7471213870700B70700409387070070
:10094400B307F7002326F4FEB717008003A7471266
:100954008327C4FD3307F700B717008023A2E712EB
:10096400B717008083A7471213870700B70700044F
:100974009387078063F4E700730010008327C4FEA5
:10098400138507000324C1021301010367800000DB
:10099400130101FD2326810213040103232EA4FC69
:1009A400232CB4FC232AC4FC8327C4FD2326F4FE91
:1009B400832784FD2324F4FE6F004002032784FE72
:1009C400930717002324F4FE8327C4FE938617009D
:1009D4002326D4FE034707002380E700832744FD32
:1009E4001387F7FF232AE4FCE39A07FC8327C4FD5B
:1009F400138507000324C10213010103678000006B
:100A0400130101FE232E1100232C81001304010283
:100A14002326A4FE8327C4FE93F7F70F138507004C
:100A2400EFF01FEC130000008320C10103248101B7
:100A34001301010267800000130101FE232E11003F
:100A4400232C8100130401022326A4FE6F00C0019D
:100A54008327C4FE138717002326E4FE83C70700F9
:100A640013850700EFF0DFE78327C4FE83C7070081
:100A7400E39007FE130000008320C10103248101D9
:100A84001301010267800000130101FB23261104F6
:100A94002324810413040105232EA4FA232CB4FA7D
:100AA400930784FC2326F4FE8327C4FB63D0070248
:100AB400832784FB638C07001305D002EFF05FF4F7
:100AC4008327C4FBB307F040232EF4FA8327C4FB27
:100AD4002324F4FE6F00C004832784FE9305A00042
:100AE40013850700EF00403F9307050013F7F70F46
:100AF4008327C4FE938617002326D4FE1307070317
:100B04001377F70F2380E700832784FE9305A00063
:100B140013850700EF00C037930705002324F4FE74
:100B2400832784FEE39A07FA930784FC0327C4FE11
:100B3400E304F7FA6F0000028327C4FE9387F7FFEC
:100B44002326F4FE8327C4FE83C70700138507000A
:100B5400EFF01FEB930784FC0327C4FEE31EF7FCAE
:100B6400130000008320C104032481041301010540
:100B740067800000130101FB232611042324810450
:100B840013040105232EA4FA930704FC2326F4FE80
:100B94008327C4FB2324F4FE930780002322F4FE5E
:100BA4006F008005832784FE93F7F70F93F7F70010
:100BB400A301F4FE034734FE9307900063FAE700B1
:100BC400834734FE9387770313F7F70F6F00000111
:100BD400834734FE9387070313F7F70F8327C4FE75
:100BE400938617002326D4FE2380E700832784FE00
:100BF40093D747002324F4FE832744FE1387F7FF8B
:100C04002322E4FEE39007FA6F0000028327C4FE68
:100C14009387F7FF2326F4FE8327C4FE83C70700C8
:100C240013850700EFF0DFDD930704FC0327C4FE00
:100C3400E31EF7FC130000008320C1040324810495
:100C44001301010567800000130101FB2326110233
:100C54002324810213040103232EA4FC2322B400C1
:100C64002324C4002326D4002328E400232AF400E8
:100C7400232C0401232E140193070402938747FEB7
:100C84002324F4FE232604FE6F0040178327C4FEAA
:100C94000327C4FDB307F70003C7070093075002F7
:100CA400631CF7126F0000118327C4FE0327C4FDE1
:100CB400B307F70003C70700930730066310F70272
:100CC400832784FE138747002324E4FE83A70700B9
:100CD40013850700EFF0DFD26F0080118327C4FE75
:100CE4000327C4FDB307F70003C7070093073007C2
:100CF4006310F702832784FE138747002324E4FE4E
:100D040083A7070013850700EFF01FD36F00400E81
:100D14008327C4FE0327C4FDB307F70003C70700F6
:100D2400930740066312F702832784FE1387470064
:100D34002324E4FE83A7070093051000138507000E
:100D4400EFF09FD46F00C00A8327C4FE0327C4FDBD
:100D5400B307F70003C70700930750076312F702AE
:100D6400832784FE138747002324E4FE83A7070018
:100D74009305000013850700EFF01FD16F004007B3
:100D84008327C4FE0327C4FDB307F70003C7070086
:100D9400930780076310F702832784FE13874700B5
:100DA4002324E4FE83A7070013850700EFF09FDCEC
:100DB4006F0000048327C4FE938717002326F4FEE4
:100DC4008327C4FE0327C4FDB307F70083C70700C6
:100DD400E39C07EC6F00C0018327C4FE0327C4FD16
:100DE400B307F70083C7070013850700EFF05FC15F
:100DF4008327C4FE938717002326F4FE8327C4FEAB
:100E04000327C4FDB307F70083C70700E39007E88F
:100E140013000000138507008320C102032481020C
:100E24001301010567800000130101FE232E110048
:100E3400232C8100130401022326A4FE6F00000268
:100E44008327C4FE83C7070013850700EFF05FA95B
:100E54008327C4FE938717002326F4FE8327C4FE4A
:100E640083C70700E39E07FC1305A000EFF05FA70C
:100E740093070000138507008320C1010324810127
:100E840013010102678000006340050663C605067E
:100E940013860500930505001305F0FF630C060295
:100EA40093061000637AB6006358C0001316160048
:100EB40093961600E36AB6FE1305000063E6C500C8
:100EC400B385C5403365D50093D616001356160076
:100ED400E39606FE6780000093820000EFF05FFB5C
:100EE40013850500678002003305A04063D8050020
:100EF400B305B0406FF0DFF9B305B0409382000052
:100F0400EFF01FF93305A0406780020093820000D0
:100F140063CA0500634C0500EFF09FF713850500D5
:100F240067800200B305B040E35805FE3305A040D6
:0C0F3400EFF01FF63305B04067800200AC
:100F4000600000002003000070000000F0020000BC
:100F5000020000000D0200000C000000EC01000087
:100F600008000000460000001000000040000000E3
:100F7000020000003000000008000000280000000F
:100F800008000000B800000010000000B0000000E1
:100F90000200000082000000060000007E00000049
:100FA0004572726F72206465746563746564206154
:100FB00074206164647220307825780D0A00000086
:100FC0004D656D5465737420504153530D000000FE
:100FD0004D656D546573742054726565205041539E
:100FE000530D00006865617053746172743A20306B
:100FF0007825780D0A00000068656170456E643AD6
:10100000202020307825780D0A0000007472656574
:1010100053746172743A20307825780D0A0000000C
:1010200074726565456E643A202020307825780D0D
:101030000A0000004D656D546573742042454749B0
:101040004E0D000054657374696E67203078257802
:10105000206279746573206F6620686561700D0A7F
:101060000000000057726974696E672E2E2E0D0005
:10107000496E6A656374696E67206572726F72206B
:101080006174206164647220307825780D0A000054
:1010900052656164696E672E2E2E0D005265616483
:1010A000206261636B20307825782C2073686F751F
:1010B0006C6420626520307825780D0A00000000FD
:1010C000600000002003000070000000F00200003B
:1010D000020000000D0200000C000000EC01000006
:1010E0000800000046000000100000004000000062
:1010F000020000003000000008000000280000008E
:1011000008000000B800000010000000B00000005F
:101110000200000082000000060000007E000000C7
:040000058000000077
:00000001FF
