:0200000480007A
:100000006F00000B1300000013000000130000003D
:100010001300000013000000130000001300000094
:10002000232E11FE232C51FE232A61FE232871FE6C
:100030002326A1FE2324B1FE2322C1FE2320D1FECC
:10004000232EE1FC232CF1FC232A01FD232811FDA2
:100050002326C1FD2324D1FD2322E1FD2320F1FD30
:10006000130101FCEF0040478320C1038322810379
:1000700003234103832301030325C1028325810256
:1000800003264102832601020327C1018327810140
:100090000328410183280101032EC100832E810022
:1000A000032F4100832F010013010104730020304E
:1000B00097110000938181CC170100C8130181F4CE
:1000C000170500001305854B938541806308B50033
:1000D00023200500130545006FF05FFF17050000A2
:1000E000130585491301C1FF970500009385C54895
:1000F000630EB50083260500130545002320A100EB
:10010000E7800600032501006FF01FFE1301410088
:10011000371500001305058873104530372500009A
:100120001305858073100530EF0000296F00000073
:1001300037150000130505FE0F500570E31C05FE82
:0401400067800000D4
:10014400130101FE232E8100130401022326A4FEC1
:100154008327C4FE23A007008327C4FE23A407002B
:10016400130000000324C101130101026780000091
:10017400130101FE232E8100130401022326A4FE91
:10018400130000000324C101130101026780000071
:10019400130101FE232E8100130401022326A4FE71
:1001A4008327C4FE23A207008327C4FE1307F0FF9E
:1001B40023A0E700130000000324C101130101027E
:1001C40067800000130101FE232E81001304010245
:1001D4002326A4FE8327C4FE83A7470093D70701E1
:1001E40093F7F70F138507000324C10113010102DC
:1001F40067800000130101FE232E81001304010215
:100204002326A4FE8327C4FE83A7470093D7870130
:10021400138507000324C101130101026780000054
:10022400130101FE232E1100232C8100130401026B
:100234002326A4FE2324B4FE130000000325C4FED9
:10024400EFF05FF893070500E38A07FE8327C4FEF7
:10025400032784FE23A0E700130000008320C101CC
:10026400032481011301010267800000130101FED0
:10027400232E8100130401022326A4FE2324B4FEAA
:10028400832784FE03A7C7008327C4FE23A4E700B3
:10029400832784FE83A707001387F7FF832784FE41
:1002A40083A74700939787003367F700832784FE6B
:1002B40083A78700939707013367F7008327C4FE5A
:1002C40023A6E700130000000324C1011301010267
:1002D40067800000130101FE232E81001304010234
:1002E4002326A4FE8327C4FE83A7070093F72700D1
:1002F400B337F00093F7F70F138507000324C10108
:100304001301010267800000130101FE232E810006
:10031400130401022326A4FE8327C4FE130710003E
:1003240023A0E700130000000324C101130101020C
:1003340067800000130101FE232E1100232C81008D
:10034400130401022326A4FE8327C4FE23A007006E
:10035400130000000325C4FEEFF0DFF79307050048
:10036400E39A07FE130000008320C10103248101E6
:100374001301010267800000130101FF232681009D
:1003840013040101B70700F0370700FC130707F057
:1003940023A2E7006F000000130101FF2326810060
:1003A40013040101B70700F01307F00F23A2E700BD
:1003B4006F000000130101FE232E1100232C810085
:1003C400232A91002328210113040102B70700F016
:1003D4001307F0FF23A4E700B70700F03707000472
:1003E40023A2E70093040000B707004093870700A7
:1003F4002326F4FEB7070048938707802324F4FEDE
:100404006F00800293F71400639607009307A00A15
:100414006F008000930750050327C4FE330797003D
:100424002300F700938414008327C4FEB387970046
:10043400032784FEE3E8E7FCB707008083C78757F8
:1004440013F7F70F93071000631CF7009387F4FF6B
:100454000327C4FEB307F7001307B0FA2380E700AD
:10046400EFF0DFCC930400006F00C0038327C4FEC9
:10047400B387970003C9070093F714006398070034
:100484009307A00A6304F900EFF01FEF93F7140039
:1004940063880700930750056304F900EFF0DFED6C
:1004A400938414008327C4FEB3879700032784FE34
:1004B400E3EEE7FAEFF05FEE130000008320C101E2
:1004C4000324810183244101032901011301010251
:1004D40067800000130101FF23268100130401013A
:1004E400B707008083C7875793F7F70F93C71700A1
:1004F40013F7F70FB7070080238CE7566FF09FEBD5
:10050400130000000324C1001301010167800000EF
:10051400600000002003000070000000F0020000F2
:10052400020000000D0200000C000000EC010000BD
:100534000800000046000000100000004000000019
:100544000200000030000000080000002800000045
:1005540008000000B800000010000000B000000017
:100564000200000082000000060000007E0000007F
:040574000000000083
:040000058000000077
:00000001FF
