:0200000480007A
:100000006F00000B1300000013000000130000003D
:100010001300000013000000130000001300000094
:10002000232E11FE232C51FE232A61FE232871FE6C
:100030002326A1FE2324B1FE2322C1FE2320D1FECC
:10004000232EE1FC232CF1FC232A01FD232811FDA2
:100050002326C1FD2324D1FD2322E1FD2320F1FD30
:10006000130101FCEF00C06A8320C10383228103D6
:1000700003234103832301030325C1028325810256
:1000800003264102832601020327C1018327810140
:100090000328410183280101032EC100832E810022
:1000A000032F4100832F010013010104730020304E
:1000B000972100009381818E170100C4130181F400
:1000C000171500001305850D938581806308B50021
:1000D00023200500130545006FF05FFF170500C4DE
:1000E000130545F2970500C89385C5F16308B5006F
:1000F00023200500130545006FF05FFF1715000072
:100100001305C5091301C1FF971500009385050963
:10011000630EB50083260500130545002320A100CA
:10012000E7800600032501006FF01FFE1301410068
:10013000371500001305058873104530372500007A
:100140001305858073100530EF00402F6F0000000D
:1001500037150000130505FE0F500570E31C05FE62
:0401600067800000B4
:10016400130101FE232E8100130401022326A4FEA1
:100174008327C4FE23A007008327C4FE23A407000B
:10018400130000000324C101130101026780000071
:10019400130101FE232E8100130401022326A4FE71
:1001A400130000000324C101130101026780000051
:1001B400130101FE232E8100130401022326A4FE51
:1001C4008327C4FE23A207008327C4FE1307F0FF7E
:1001D40023A0E700130000000324C101130101025E
:1001E40067800000130101FE232E81001304010225
:1001F4002326A4FE8327C4FE83A7470093D70701C1
:1002040093F7F70F138507000324C10113010102BB
:1002140067800000130101FE232E810013040102F4
:100224002326A4FE8327C4FE83A7470093D7870110
:10023400138507000324C101130101026780000034
:10024400130101FE232E1100232C8100130401024B
:100254002326A4FE2324B4FE130000000325C4FEB9
:10026400EFF05FF893070500E38A07FE8327C4FED7
:10027400032784FE23A0E700130000008320C101AC
:10028400032481011301010267800000130101FEB0
:10029400232E8100130401022326A4FE2324B4FE8A
:1002A400832784FE03A7C7008327C4FE23A4E70093
:1002B400832784FE83A707001387F7FF832784FE21
:1002C40083A74700939787003367F700832784FE4B
:1002D40083A78700939707013367F7008327C4FE3A
:1002E40023A6E700130000000324C1011301010247
:1002F40067800000130101FE232E81001304010214
:100304002326A4FE8327C4FE83A7070093F72700B0
:10031400B337F00093F7F70F138507000324C101E7
:100324001301010267800000130101FE232E8100E6
:10033400130401022326A4FE8327C4FE130710001E
:1003440023A0E700130000000324C10113010102EC
:1003540067800000130101FE232E1100232C81006D
:10036400130401022326A4FE8327C4FE23A007004E
:10037400130000000325C4FEEFF0DFF79307050028
:10038400E39A07FE130000008320C10103248101C6
:100394001301010267800000130101FE232E1100E6
:1003A400232C8100130401022326A4FEB70700F0C6
:1003B400370700FC130707F023A2E7008325C4FED8
:1003C400B7170080138507FDEF00100B6F000000C6
:1003D400130101FF232611002324810013040101CA
:1003E400B70700F01307F00F23A2E700B717008048
:1003F400138507FFEF0050266F000000130101FF73
:10040400232611002324810013040101B70700F0FF
:100414001307F00023A2E700B71700801385070035
:10042400EF009023130000008320C1000324810007
:100434001301010167800000130101FD232611024D
:100444002324810223229102232021031304010384
:10045400B70700F01307F0FF23A4E700B70700F085
:100464003707000423A2E700930780002328F4FC45
:10047400232A04FC232C04FC93075003232EF4FCAE
:10048400930704FD93850700370501F0EFF01FE0A3
:1004940093040000B7070040938707002326F4FE67
:1004A400B7070044938707802324F4FEB70700446A
:1004B400938707002322F4FEB707004893870700B9
:1004C4002320F4FE8325C4FEB7170080138547015B
:1004D400EF00807A832584FEB71700801385870296
:1004E400EF008079832544FEB71700801385C70386
:1004F400EF008078832504FEB71700801385070575
:10050400EF008077B717008013854706EF00D014FB
:10051400032704FE832744FEB307F74093850700AF
:10052400B717008013854707EF000075B7170080E1
:1005340013850709EF005012EFF05FC1B717008071
:100544001385070CEF0050116F000004832744FE4D
:10055400B387970003C907006306090293070900DC
:100564001306000093850700B71700801385C70C96
:10057400EF008070832744FEB3879700138507003C
:10058400EFF09FE193841400832744FEB387970020
:10059400032704FEE3ECE7FAEFF05FE693040000C0
:1005A400032784FE8327C4FEB307F740938507001F
:1005B400B71700801385070FEF00006CB717008092
:1005C4001385C710EF0050096F00800293F71400E1
:1005D400639607009307A00A6F00800093075005F5
:1005E4000327C4FE330797002300F7009384140005
:1005F4008327C4FEB3879700032784FEE3E8E7FC60
:10060400B717008083C7871913F7F70F93071000F4
:10061400631AF7029387F4FF0327C4FEB307F700B6
:100624001307B0FA2380E7009387F4FF0327C4FE7F
:10063400B307F70093850700B71700801385871168
:10064400EF008063EFF09FB093040000B7170080C1
:100654001385070CEF0050006F0040088327C4FE89
:10066400B387970003C9070093F71400639A07023E
:100674009307A00A6306F902930709001306A00A68
:1006840093850700B71700801385C70CEF00C05E81
:100694008327C4FEB387970013850700EFF0DFCFED
:1006A40093F71400638A0702930750056306F9025F
:1006B400930709001306500593850700B7170080B8
:1006C4001385C70CEF00405B8327C4FEB3879700F4
:1006D40013850700EFF05FCC938414008327C4FED6
:1006E400B3879700032784FEE3EAE7F6EFF05FCED3
:1006F400130000008320C1020324810283244102E9
:10070400032901021301010367800000130101FFA3
:100714002326810013040101B717008083C78719BA
:1007240093F7F70F93C7170013F7F70FB717008066
:10073400238CE7186FF05FD0130000000324C1007E
:100744001301010167800000130101FE232E8100C3
:10075400130401022326A4FE8327C4FE23A007005A
:100764008327C4FE23A40700130000000324C1014F
:100774001301010267800000130101FE232E810092
:10078400130401022326A4FE130000000324C10164
:100794001301010267800000130101FE232E810072
:1007A400130401022326A4FE8327C4FE23A2070008
:1007B4008327C4FE1307F0FF23A0E7001300000003
:1007C4000324C1011301010267800000130101FE2B
:1007D400232E8100130401022326A4FE8327C4FED2
:1007E40083A7470093D7070193F7F70F13850700F3
:1007F4000324C1011301010267800000130101FEFB
:10080400232E8100130401022326A4FE8327C4FEA1
:1008140083A7470093D78701138507000324C101E9
:100824001301010267800000130101FE232E110051
:10083400232C8100130401022326A4FE2324B4FEE6
:10084400130000000325C4FEEFF05FF893070500D2
:10085400E38A07FE8327C4FE032784FE23A0E70060
:10086400130000008320C10103248101130101024C
:1008740067800000130101FE232E8100130401028E
:100884002326A4FE2324B4FE832784FE03A7C700E3
:100894008327C4FE23A4E700832784FE83A70700DD
:1008A4001387F7FF832784FE83A747009397870066
:1008B4003367F700832784FE83A787009397070194
:1008C4003367F7008327C4FE23A6E7001300000064
:1008D4000324C1011301010267800000130101FE1A
:1008E400232E8100130401022326A4FE8327C4FEC1
:1008F40083A7070093F72700B337F00093F7F70FA8
:10090400138507000324C10113010102678000005D
:10091400130101FE232E8100130401022326A4FEE9
:100924008327C4FE1307100023A0E7001300000070
:100934000324C1011301010267800000130101FEB9
:10094400232E1100232C8100130401022326A4FE6C
:100954008327C4FE23A00700130000000325C4FE60
:10096400EFF0DFF793070500E39A07FE130000009A
:100974008320C10103248101130101026780000067
:10098400130101FE232E1100232C81001304010204
:1009940093070500A307F4FE8347F4FE938507003D
:1009A400370501F0EFF05FE8130000008320C10178
:1009B400032481011301010267800000130101FD7A
:1009C4002326810213040103232EA4FCB7170080FD
:1009D40083A7C71913870700B70700409387070049
:1009E400B307F7002326F4FEB717008003A7C7193F
:1009F4008327C4FD3307F700B717008023AEE71839
:100A0400B717008083A7C71913870700B707000427
:100A14009387078063F4E700730010008327C4FE04
:100A2400138507000324C10213010103678000003A
:100A3400130101FE232E1100232C81001304010253
:100A44002326A4FE8327C4FE93F7F70F138507001C
:100A5400EFF01FF3130000008320C1010324810180
:100A64001301010267800000130101FE232E11000F
:100A7400232C8100130401022326A4FE6F00C0016D
:100A84008327C4FE138717002326E4FE83C70700C9
:100A940013850700EFF0DFEE8327C4FE83C707004A
:100AA400E39007FE130000008320C10103248101A9
:100AB4001301010267800000130101FB23261104C6
:100AC4002324810413040105232EA4FA232CB4FA4D
:100AD400930784FC2326F4FE8327C4FB63D0070218
:100AE400832784FB638C07001305D002EFF05FF4C7
:100AF4008327C4FBB307F040232EF4FA8327C4FBF7
:100B04002324F4FE6F00C004832784FE9305A00011
:100B140013850700EF00403F9307050013F7F70F15
:100B24008327C4FE938617002326D4FE13070703E6
:100B34001377F70F2380E700832784FE9305A00033
:100B440013850700EF00C037930705002324F4FE44
:100B5400832784FEE39A07FA930784FC0327C4FEE1
:100B6400E304F7FA6F0000028327C4FE9387F7FFBC
:100B74002326F4FE8327C4FE83C7070013850700DA
:100B8400EFF01FEB930784FC0327C4FEE31EF7FC7E
:100B9400130000008320C104032481041301010510
:100BA40067800000130101FB232611042324810420
:100BB40013040105232EA4FA930704FC2326F4FE50
:100BC4008327C4FB2324F4FE930780002322F4FE2E
:100BD4006F008005832784FE93F7F70F93F7F700E0
:100BE400A301F4FE034734FE9307900063FAE70081
:100BF400834734FE9387770513F7F70F6F000001DF
:100C0400834734FE9387070313F7F70F8327C4FE44
:100C1400938617002326D4FE2380E700832784FECF
:100C240093D747002324F4FE832744FE1387F7FF5A
:100C34002322E4FEE39007FA6F0000028327C4FE38
:100C44009387F7FF2326F4FE8327C4FE83C7070098
:100C540013850700EFF0DFD2930704FC0327C4FEDB
:100C6400E31EF7FC130000008320C1040324810465
:100C74001301010567800000130101FB2326110203
:100C84002324810213040103232EA4FC2322B40091
:100C94002324C4002326D4002328E400232AF400B8
:100CA400232C0401232E140193070402938747FE87
:100CB4002324F4FE232604FE6F0040178327C4FE7A
:100CC4000327C4FDB307F70003C7070093075002C7
:100CD400631CF7126F0000118327C4FE0327C4FDB1
:100CE400B307F70003C70700930730066310F70242
:100CF400832784FE138747002324E4FE83A7070089
:100D040013850700EFF0DFD26F0080118327C4FE44
:100D14000327C4FDB307F70003C707009307300791
:100D24006310F702832784FE138747002324E4FE1D
:100D340083A7070013850700EFF01FD36F00400E51
:100D44008327C4FE0327C4FDB307F70003C70700C6
:100D5400930740066312F702832784FE1387470034
:100D64002324E4FE83A707009305100013850700DE
:100D7400EFF09FD46F00C00A8327C4FE0327C4FD8D
:100D8400B307F70003C70700930750076312F7027E
:100D9400832784FE138747002324E4FE83A70700E8
:100DA4009305000013850700EFF01FD16F00400783
:100DB4008327C4FE0327C4FDB307F70003C7070056
:100DC400930780076310F702832784FE1387470085
:100DD4002324E4FE83A7070013850700EFF09FDCBC
:100DE4006F0000048327C4FE938717002326F4FEB4
:100DF4008327C4FE0327C4FDB307F70083C7070096
:100E0400E39C07EC6F00C0018327C4FE0327C4FDE5
:100E1400B307F70083C7070013850700EFF05FC12E
:100E24008327C4FE938717002326F4FE8327C4FE7A
:100E34000327C4FDB307F70083C70700E39007E85F
:100E440013000000138507008320C10203248102DC
:100E54001301010567800000130101FE232E110018
:100E6400232C8100130401022326A4FE6F00000238
:100E74008327C4FE83C7070013850700EFF05FB024
:100E84008327C4FE938717002326F4FE8327C4FE1A
:100E940083C70700E39E07FC1305A000EFF05FAED5
:100EA40093070000138507008320C10103248101F7
:100EB40013010102678000006340050663C605064E
:100EC40013860500930505001305F0FF630C060265
:100ED40093061000637AB6006358C0001316160018
:100EE40093961600E36AB6FE1305000063E6C50098
:100EF400B385C5403365D50093D616001356160046
:100F0400E39606FE6780000093820000EFF05FFB2B
:100F140013850500678002003305A04063D80500EF
:100F2400B305B0406FF0DFF9B305B0409382000021
:100F3400EFF01FF93305A0406780020093820000A0
:100F440063CA0500634C0500EFF09FF713850500A5
:100F540067800200B305B040E35805FE3305A040A6
:0C0F6400EFF01FF63305B040678002007C
:100F7000600000002003000070000000F00200008C
:100F8000020000000D0200000C000000EC01000057
:100F900008000000460000001000000040000000B3
:100FA00002000000300000000800000028000000DF
:100FB00008000000B800000010000000B0000000B1
:100FC0000200000082000000060000007E00000019
:100FD0004572726F72206465746563746564206124
:100FE00074206164647220307825780D0A00000056
:100FF0004D656D5465737420504153530D000000CE
:101000004D656D546573742054726565205041536D
:10101000530D00006865617053746172743A20303A
:101020007825780D0A00000068656170456E643AA5
:10103000202020307825780D0A0000007472656544
:1010400053746172743A20307825780D0A000000DC
:1010500074726565456E643A202020307825780DDD
:101060000A0000004D656D54657374204245474980
:101070004E0D000054657374696E672025752062FB
:1010800079746573206F6620747265650D0A0000BF
:1010900053686F756C6420616C6C206265207A65A2
:1010A000726F6564206265666F7265206D61696E3E
:1010B00028292069732063616C6C65640D00000051
:1010C00052656164696E672E2E2E0D005265616453
:1010D000206261636B20307825782C2073686F75EF
:1010E0006C6420626520307825780D0A00000000CD
:1010F00054657374696E6720257520627974657311
:10110000206F6620686561700D0A0000577269746F
:10111000696E672E2E2E0D00496E6A656374696EC6
:1011200067206572726F722061742061646472203E
:10113000307825780D0A00006000000020030000D0
:1011400070000000F0020000020000000D0200002C
:101150000C000000EC010000080000004600000048
:1011600010000000400000000200000030000000FD
:10117000080000002800000008000000B80000007F
:1011800010000000B000000002000000820000001B
:08119000060000007E000000D3
:040000058000000077
:00000001FF
