:0200000480007A
:100000006F00C004732F2034930F8000630AFF0336
:10001000930F90006306FF03930FB0006302FF038A
:10002000170F0080130F0FFE63040F0067000F000F
:10003000732F203463540F006F00400093E19153FD
:10004000170F000023203F446FF09FFF9300000034
:10005000130100009301000013020000930200004E
:100060001303000093030000130400009304000036
:10007000130500009305000013060000930600001E
:100080001307000093070000130800009308000006
:100090001309000093090000130A0000930A0000EE
:1000A000130B0000930B0000130C0000930C0000D6
:1000B000130D0000930D0000130E0000930E0000BE
:1000C000130F0000930F0000732540F1631005002B
:1000D000970200009382020173905230735000180F
:1000E000970200009382020273905230B7020080A0
:1000F0009382F2FF7390023B9302F0017390023AF5
:100100009702000093828201739052307350203026
:10011000735030307350403093010000970200005C
:10012000938282EE73905230130510001315F5017F
:10013000634C05000F00F00F930110009308D005E9
:10014000130500007300000097020080938282EB89
:10015000638A020073905210B7B20000938292102B
:100160007390223073500030970200009382420156
:1001700073901234732540F1730020309700000013
:100180009380402D03D700009303F00F93012000CC
:1001900063167726970000009380C02B03D72000BA
:1001A000B7030100938303F09301300063187724B1
:1001B000970000009380002A03D74000B713000087
:1001C000938303FF93014000631A77229700000096
:1001D0009380402803D76000B7F300009383F300B7
:1001E00093015000631C7720970000009380E02665
:1001F00003D7A0FF9303F00F9301600063107720F3
:10020000970000009380602503D7C0FFB70301006B
:10021000938303F0930170006312771E9700000030
:100220009380A02303D7E0FFB7130000938303FF5D
:10023000930180006314771C970000009380E021F5
:1002400003D70000B7F300009383F30093019000FD
:100250006316771A970000009380C01F938000FEFA
:1002600083D200029303F00F9301A00063987218E9
:10027000970000009380001E9380B0FF83D270002F
:10028000B7030100938303F09301B00063987216E3
:100290009301C00013020000970000009380A01B90
:1002A00003D7200013030700B7130000938303FF55
:1002B000631673141302120093022000E31E52FC13
:1002C0009301D00013020000970000009380C01833
:1002D00003D720001300000013030700B7F300004A
:1002E0009383F300631C7310130212009302200027
:1002F000E31C52FC9301E000130200009700000091
:100300009380401503D72000130000001300000065
:1003100013030700B7030100938303F06310730E08
:100320001302120093022000E31A52FC9301F00022
:1003300013020000970000009380E01103D7200013
:10034000B7130000938303FF631A770A13021200A6
:1003500093022000E31052FE9301000113020000FB
:10036000970000009380400F1300000003D7200087
:10037000B7F300009383F3006312770813021200AF
:1003800093022000E31E52FC9301100113020000AF
:10039000970000009380000C130000001300000081
:1003A00003D72000B7030100938303F06318770499
:1003B0001302120093022000E31C52FC970200007B
:1003C0009382420903D1020013012000930320000D
:1003D0009301200163147102970200009382820747
:1003E00003D102001300000013012000930320003A
:1003F0009301300163147100631030020F00F00F9D
:10040000638001009391110093E111009308D005DE
:1004100013850100730000000F00F00F930110001E
:100420009308D0051305000073000000731000C08E
:1004300000000000000000000000000000000000BC
:0404400000000000B8
:10045000FF0000FFF00F0FF00000000000000000A0
:10048000000000000000000000000000000000006C
:10049000000000000000000000000000000000005C
:1004A000000000000000000000000000000000004C
:1004B000000000000000000000000000000000003C
:0804C000000000000000000034
:040000058000000077
:00000001FF
