:0200000480007A
:100000006F00C004732F2034930F8000630AFF0336
:10001000930F90006306FF03930FB0006302FF038A
:10002000170F0080130F0FFE63040F0067000F000F
:10003000732F203463540F006F00400093E19153FD
:10004000170F000023203F246FF09FFF9300000054
:10005000130100009301000013020000930200004E
:100060001303000093030000130400009304000036
:10007000130500009305000013060000930600001E
:100080001307000093070000130800009308000006
:100090001309000093090000130A0000930A0000EE
:1000A000130B0000930B0000130C0000930C0000D6
:1000B000130D0000930D0000130E0000930E0000BE
:1000C000130F0000930F0000732540F1631005002B
:1000D000970200009382020173905230735000180F
:1000E000970200009382020273905230B7020080A0
:1000F0009382F2FF7390023B9302F0017390023AF5
:100100009702000093828201739052307350203026
:10011000735030307350403093010000970200005C
:10012000938282EE73905230130510001315F5017F
:10013000634C05000F00F00F930110009308D005E9
:10014000130500007300000097020080938282EB89
:10015000638A020073905210B7B20000938292102B
:100160007390223073500030970200009382420156
:1001700073901234732540F173002030B7000000F3
:100180009303000093012000639A7004B7F0FFFF0F
:1001900093D010409303008093013000639070046B
:1001A000B7F0FF7F93D040419303F07F930140006D
:1001B00063967002B700008093D0404193030080A3
:1001C00093015000639C700037000080930300008F
:1001D0009301600063147000631030020F00F00F91
:1001E000638001009391110093E111009308D00501
:1001F00013850100730000000F00F00F9301100041
:100200009308D0051305000073000000731000C0B0
:1002100000000000000000000000000000000000DE
:1002200000000000000000000000000000000000CE
:1002300000000000000000000000000000000000BE
:0402400000000000BA
:10028000000000000000000000000000000000006E
:10029000000000000000000000000000000000005E
:1002A000000000000000000000000000000000004E
:1002B000000000000000000000000000000000003E
:0802C000000000000000000036
:040000058000000077
:00000001FF
