:0200000480007A
:100000006F00C004732F2034930F8000630AFF0336
:10001000930F90006306FF03930FB0006302FF038A
:10002000170F0080130F0FFE63040F0067000F000F
:10003000732F203463540F006F00400093E19153FD
:10004000170F000023203F406FF09FFF9300000038
:10005000130100009301000013020000930200004E
:100060001303000093030000130400009304000036
:10007000130500009305000013060000930600001E
:100080001307000093070000130800009308000006
:100090001309000093090000130A0000930A0000EE
:1000A000130B0000930B0000130C0000930C0000D6
:1000B000130D0000930D0000130E0000930E0000BE
:1000C000130F0000930F0000732540F1631005002B
:1000D000970200009382020173905230735000180F
:1000E000970200009382020273905230B7020080A0
:1000F0009382F2FF7390023B9302F0017390023AF5
:100100009702000093828201739052307350203026
:10011000735030307350403093010000970200005C
:10012000938282EE73905230130510001315F5017F
:10013000634C05000F00F00F930110009308D005E9
:10014000130500007300000097020080938282EB89
:10015000638A020073905210B7B20000938292102B
:100160007390223073500030970200009382420156
:1001700073901234732540F1730020309700000013
:1001800093804029038700009303F0FF9301200030
:10019000631C7722970000009380C027038710001C
:1001A0009303000093013000631077229700000052
:1001B0009380402603872000930300FF93014000B3
:1001C00063147720970000009380C02403873000D9
:1001D0009303F000930150006318771E970000000E
:1001E000938070230387D0FF9303F0FF9301600097
:1001F000631C771C970000009380F0210387E0FFC9
:1002000093030000930170006310771C97000000B7
:10021000938070200387F0FF930300FF9301800019
:100220006314771A970000009380F01E0387000084
:100230009303F00093019000631877189700000073
:100240009380401D938000FE838200029303F0FFA1
:100250009301A000639A7216970000009380801BA0
:100260009380A0FF83827000930300009301B0008D
:10027000639C72149301C0001302000097000000F9
:10028000938050190387100013030700930300FFA6
:10029000631C73121302120093022000E31052FE3B
:1002A0009301D00013020000970000009380A01675
:1002B0000387100013000000130307009303F000EE
:1002C000631473101302120093022000E31E52FC09
:1002D0009301E00013020000970000009380801358
:1002E0000387100013000000130000001303070031
:1002F00093030000631A730C130212009302200090
:10030000E31C52FC9301F000130200009700000070
:100310009380501003871000930300FF6316770A41
:100320001302120093022000E31252FE9301000117
:1003300013020000970000009380E00D13000000FE
:10034000038710009303F000631077081302120074
:1003500093022000E31052FE9301100113020000EB
:10036000970000009380000B1300000013000000B2
:100370000387100093030000631877041302120030
:1003800093022000E31E52FC970200009382820831
:100390000381020013012000930320009301200138
:1003A00063147102970200009382C2060381020067
:1003B000130000001301200093032000930130017B
:1003C00063147100631030020F00F00F63800100AE
:1003D0009391110093E111009308D005138501005A
:1003E000730000000F00F00F930110009308D00578
:1003F0001305000073000000731000C0000000002F
:0404000000000000F8
:10041000FF00F00F000000000000000000000000DE
:1004400000000000000000000000000000000000AC
:10045000000000000000000000000000000000009C
:10046000000000000000000000000000000000008C
:10047000000000000000000000000000000000007C
:08048000000000000000000074
:040000058000000077
:00000001FF
