:0200000480007A
:100000006F00C004732F2034930F8000630AFF0336
:10001000930F90006306FF03930FB0006302FF038A
:10002000170F0080130F0FFE63040F0067000F000F
:10003000732F203463540F006F00400093E19153FD
:10004000170F000023203F5C6FF09FFF930000001C
:10005000130100009301000013020000930200004E
:100060001303000093030000130400009304000036
:10007000130500009305000013060000930600001E
:100080001307000093070000130800009308000006
:100090001309000093090000130A0000930A0000EE
:1000A000130B0000930B0000130C0000930C0000D6
:1000B000130D0000930D0000130E0000930E0000BE
:1000C000130F0000930F0000732540F1631005002B
:1000D000970200009382020173905230735000180F
:1000E000970200009382020273905230B7020080A0
:1000F0009382F2FF7390023B9302F0017390023AF5
:100100009702000093828201739052307350203026
:10011000735030307350403093010000970200005C
:10012000938282EE73905230130510001315F5017F
:10013000634C05000F00F00F930110009308D005E9
:10014000130500007300000097020080938282EB89
:10015000638A020073905210B7B20000938292102B
:100160007390223073500030970200009382420156
:1001700073901234732540F1730020309700000013
:10018000938040451301A0FA2380200003870000DC
:100190009303A0FA93012000631C773C97000000B2
:1001A0009380404313010000A380200003871000C8
:1001B0009303000093013000631C773A970000001E
:1001C0009380404137F1FFFF130101FA23812000A2
:1001D00003972000B7F3FFFF938303FA93014000D6
:1001E00063187738970000009380C03E1301A00089
:1001F000A3812000038730009303A00093015000E7
:1002000063187736970000009380303D1301A0FA01
:10021000A38E20FE0387D0FF9303A0FA9301600012
:1002200063187734970000009380303B130100007F
:10023000238F20FE0387E0FF9303000093017000EB
:10024000631877329700000093803039130100FA69
:10025000A38F20FE0387F0FF930300FA9301800031
:100260006318773097000000938030371301A000A7
:1002700023802000038700009303A00093019000D7
:100280006318772E97000000938040353751341261
:1002900013018167138200FE230022028382000083
:1002A000930380079301A0006394722C97000000D1
:1002B0009380C03237310000130181099380A0FF81
:1002C000A3832000170200001302523183020200B0
:1002D000930380F99301B000639C72289301C000DE
:1002E000130200009300D0FD170100001301812EBE
:1002F00023001100030701009303D0FD631A772642
:100300001302120093022000E31E52FC9301D0005E
:10031000130200009300D0FC170100001301812B91
:1003200013000000A3001100030711009303D0FC89
:10033000631077241302120093022000E31C52FC86
:100340009301E000130200009300C0FC17010000BD
:1003500013014128130000001300000023011100C5
:10036000030721009303C0FC6314772013021200DB
:1003700093022000E31A52FC9301F00013020000E4
:100380009300C0FB1300000017010000130181243B
:10039000A3011100030731009303C0FB631A771C0C
:1003A0001302120093022000E31C52FC930100018F
:1003B000130200009300B0FB1300000017010000BF
:1003C0001301412113000000230211000307410023
:1003D0009303B0FB631E77181302120093022000F0
:1003E000E31A52FC93011001130200009300B0FACB
:1003F0001300000013000000170100001301811D0D
:10040000A3021100030751009303B0FA6312771699
:100410001302120093022000E31A52FC9301200100
:1004200013020000170100001301C11A93003003EA
:10043000230011000307010093033003631A7712AE
:100440001302120093022000E31E52FC93013001BC
:1004500013020000170100001301C11793003002BE
:1004600013000000A30011000307110093033002E2
:10047000631077101302120093022000E31C52FC59
:1004800093014001130200001701000013018114C1
:10049000930020021300000013000000230111004C
:1004A00003072100930320026314770C1302120048
:1004B00093022000E31A52FC930150011302000042
:1004C0001701000013010111130000009300200127
:1004D000A30111000307310093032001631A770879
:1004E0001302120093022000E31C52FC93016001EE
:1004F00013020000170100001301C10D13000000DA
:1005000093001001130000002302110003074100B3
:1005100093031001631E770413021200930220005C
:10052000E31A52FC9301700113020000170100004E
:100530001301410A13000000130000009300100093
:10054000A302110003075100930310006312770206
:100550001302120093022000E31A52FC1305F00E5E
:100560009705000093850507A381A500631030025D
:100570000F00F00F638001009391110093E11100CF
:100580009308D00513850100730000000F00F00FE1
:10059000930110009308D0051305000073000000BC
:1005A000731000C000000000000000000000000008
:1005B000000000000000000000000000000000003B
:0405C0000000000037
:1005D000EFEFEFEFEFEFEFEFEFEF000000000000C5
:1006000000000000000000000000000000000000EA
:1006100000000000000000000000000000000000DA
:1006200000000000000000000000000000000000CA
:1006300000000000000000000000000000000000BA
:080640000000000000000000B2
:040000058000000077
:00000001FF
