:0200000480007A
:100000006F00000B1300000013000000130000003D
:100010001300000013000000130000001300000094
:10002000232E11FE232C51FE232A61FE232871FE6C
:100030002326A1FE2324B1FE2322C1FE2320D1FECC
:10004000232EE1FC232CF1FC232A01FD232811FDA2
:100050002326C1FD2324D1FD2322E1FD2320F1FD30
:10006000130101FCEF00404D8320C1038322810373
:1000700003234103832301030325C1028325810256
:1000800003264102832601020327C1018327810140
:100090000328410183280101032EC100832E810022
:1000A000032F4100832F010013010104730020304E
:1000B0009711000093818160170100C1130181F441
:1000C00017150000130585DF97150000938545DFA0
:1000D0006308B50023200500130545006FF05FFF9E
:1000E00017150000130585DD1301C1FF97150000EA
:1000F0009385C5DC630EB500832605001305450016
:100100002320A100E7800600032501006FF01FFEF9
:1001100013014100371500001305058873104530A1
:10012000372500001305858073100530EF0040254A
:100130006F00000037150000130505FE0F50057015
:08014000E31C05FE67800000CE
:10014800130101FE232E8100130401022326A4FEBD
:100158008327C4FE23A007008327C4FE23A4070027
:10016800130000000324C10113010102678000008D
:10017800130101FE232E8100130401022326A4FE8D
:10018800130000000324C10113010102678000006D
:10019800130101FE232E8100130401022326A4FE6D
:1001A8008327C4FE23A207008327C4FE1307F0FF9A
:1001B80023A0E700130000000324C101130101027A
:1001C80067800000130101FE232E81001304010241
:1001D8002326A4FE8327C4FE83A7470093D70701DD
:1001E80093F7F70F138507000324C10113010102D8
:1001F80067800000130101FE232E81001304010211
:100208002326A4FE8327C4FE83A7470093D787012C
:10021800138507000324C101130101026780000050
:10022800130101FE232E1100232C81001304010267
:100238002326A4FE2324B4FE130000000325C4FED5
:10024800EFF05FF893070500E38A07FE8327C4FEF3
:10025800032784FE23A0E700130000008320C101C8
:10026800032481011301010267800000130101FECC
:10027800232E8100130401022326A4FE2324B4FEA6
:10028800832784FE03A7C7008327C4FE23A4E700AF
:10029800832784FE83A707001387F7FF832784FE3D
:1002A80083A74700939787003367F700832784FE67
:1002B80083A78700939707013367F7008327C4FE56
:1002C80023A6E700130000000324C1011301010263
:1002D80067800000130101FE232E81001304010230
:1002E8002326A4FE8327C4FE83A7070093F72700CD
:1002F800B337F00093F7F70F138507000324C10104
:100308001301010267800000130101FE232E810002
:10031800130401022326A4FE8327C4FE130710003A
:1003280023A0E700130000000324C1011301010208
:1003380067800000130101FE232E1100232C810089
:10034800130401022326A4FE8327C4FE23A007006A
:10035800130000000325C4FEEFF0DFF79307050044
:10036800E39A07FE130000008320C10103248101E2
:100378001301010267800000130101FC232E110202
:10038800232C810213040104930780002326F4FC24
:10039800232804FC232A04FC93075003232CF4FC91
:1003A8009307C4FC93850700370501F0EFF01FECB5
:1003B800370503F0EFF01FF8B70703F03717008091
:1003C800032387DE930687DE83A84600930687DE2D
:1003D80003A88600930687DE03A5C600930687DE7A
:1003E80083A50601930687DE03A64601930687DEEA
:1003F80083A68601130787DE0327C70123A06704A6
:1004080023A2170523A4070523A6A70423A8B70436
:1004180023AAC70423ACD70423AEE704B70703F025
:10042800376709001307F7FF23A2E700B70703F0B0
:10043800370700401307070023A4E700370503F038
:10044800EFF09FEC231704FEB707004093870700DF
:100458002324F4FE232204FE6F00800A0357E4FEDF
:10046800832744FEB307F7009397670093F7077C49
:10047800232EF4FC232004FE6F000007832704FECC
:100488009397070193D7070193F7F701139707018C
:10049800135707018327C4FD9397070193D70701D3
:1004A800B307F7001397070113570701832784FE43
:1004B8002390E700832784FE83D70700032684FE62
:1004C80093850700B7170080138587E4EF00006263
:1004D800832784FE938727002324F4FE832704FEC2
:1004E800938717002320F4FE032704FE9307F027C1
:1004F800E3F6E7F8832744FE938717002322F4FEE8
:10050800032744FE9307F01DE3FAE7F48357E4FE5C
:10051800938747002317F4FE13050000EFF01FC16F
:100528009305A000370501F0EFF09FCF6FF0DFF1E2
:10053800130101FF232681001304010113000000A9
:100548000324C1001301010167800000130101FEAB
:10055800232E8100130401022326A4FE8327C4FE50
:1005680023A007008327C4FE23A40700130000006C
:100578000324C1011301010267800000130101FE79
:10058800232E8100130401022326A4FE1300000079
:100598000324C1011301010267800000130101FE59
:1005A800232E8100130401022326A4FE8327C4FE00
:1005B80023A207008327C4FE1307F0FF23A0E70048
:1005C800130000000324C101130101026780000029
:1005D800130101FE232E8100130401022326A4FE29
:1005E8008327C4FE83A7470093D7070193F7F70F24
:1005F800138507000324C10113010102678000006D
:10060800130101FE232E8100130401022326A4FEF8
:100618008327C4FE83A7470093D787011385070064
:100628000324C1011301010267800000130101FEC8
:10063800232E1100232C8100130401022326A4FE7B
:100648002324B4FE130000000325C4FEEFF05FF876
:1006580093070500E38A07FE8327C4FE032784FE69
:1006680023A0E700130000008320C10103248101B7
:100678001301010267800000130101FE232E81008F
:10068800130401022326A4FE2324B4FE832784FE38
:1006980003A7C7008327C4FE23A4E700832784FE9B
:1006A80083A707001387F7FF832784FE83A74700E4
:1006B800939787003367F700832784FE83A7870013
:1006C800939707013367F7008327C4FE23A6E70043
:1006D800130000000324C101130101026780000018
:1006E800130101FE232E8100130401022326A4FE18
:1006F8008327C4FE83A7070093F72700B337F000CA
:1007080093F7F70F138507000324C10113010102B2
:1007180067800000130101FE232E810013040102EB
:100728002326A4FE8327C4FE1307100023A0E70096
:10073800130000000324C1011301010267800000B7
:10074800130101FE232E1100232C81001304010242
:100758002326A4FE8327C4FE23A00700130000005D
:100768000325C4FEEFF0DFF793070500E39A07FEC1
:10077800130000008320C101032481011301010239
:1007880067800000130101FE232E1100232C810035
:100798001304010293070500A307F4FE8347F4FE40
:1007A80093850700370501F0EFF05FE813000000BC
:1007B8008320C10103248101130101026780000025
:1007C800130101FD2326810213040103232EA4FC37
:1007D800B717008083A787EB13870700B7C71240B6
:1007E80093870700B307F7002326F4FEB7170080A6
:1007F80003A787EB8327C4FD3307F700B7170080EB
:1008080023ACE7EAB717008083A787EB13870700B5
:10081800B747ED009387078063F4E7007300100083
:100828008327C4FE138507000324C10213010103B3
:1008380067800000130101FD2326810213040103D0
:10084800232EA4FC232CB4FC232AC4FC8327C4FD38
:100858002326F4FE832784FD2324F4FE6F00400240
:10086800032784FE930717002324F4FE8327C4FE7E
:10087800938617002326D4FE034707002380E7004A
:10088800832744FD1387F7FF232AE4FCE39A07FC38
:100898008327C4FD138507000324C1021301010344
:1008A80067800000130101FE232E1100232C810014
:1008B800130401022326A4FE8327C4FE93F7F70F2F
:1008C80013850700EFF01FEC130000008320C1011F
:1008D800032481011301010267800000130101FE56
:1008E800232E1100232C8100130401022326A4FEC9
:1008F8006F00C0018327C4FE138717002326E4FE78
:1009080083C7070013850700EFF0DFE78327C4FEDE
:1009180083C70700E39007FE130000008320C1018E
:10092800032481011301010267800000130101FB08
:10093800232611042324810413040105232EA4FA79
:10094800232CB4FA930784FC2326F4FE8327C4FBE4
:1009580063D00702832784FB638C07001305D0024A
:10096800EFF05FF48327C4FBB307F040232EF4FABB
:100978008327C4FB2324F4FE6F00C004832784FE6E
:100988009305A00013850700EF00403F930705007B
:1009980013F7F70F8327C4FE938617002326D4FE88
:1009A800130707031377F70F2380E700832784FED5
:1009B8009305A00013850700EF00C03793070500D3
:1009C8002324F4FE832784FEE39A07FA930784FC22
:1009D8000327C4FEE304F7FA6F0000028327C4FE6E
:1009E8009387F7FF2326F4FE8327C4FE83C70700F7
:1009F80013850700EFF01FEB930784FC0327C4FE61
:100A0800E31EF7FC130000008320C10403248104C3
:100A18001301010567800000130101FB232611045F
:100A28002324810413040105232EA4FA930704FC4C
:100A38002326F4FE8327C4FB2324F4FE93078000B7
:100A48002322F4FE6F008005832784FE93F7F70FB7
:100A580093F7F700A301F4FE034734FE93079000D1
:100A680063FAE700834734FE9387770313F7F70F9A
:100A78006F000001834734FE9387070313F7F70FCE
:100A88008327C4FE938617002326D4FE2380E7001D
:100A9800832784FE93D747002324F4FE832744FE4C
:100AA8001387F7FF2322E4FEE39007FA6F000002A2
:100AB8008327C4FE9387F7FF2326F4FE8327C4FE0B
:100AC80083C7070013850700EFF0DFDD930704FCF9
:100AD8000327C4FEE31EF7FC130000008320C104B3
:100AE800032481041301010567800000130101FB41
:100AF800232611022324810213040103232EA4FCBC
:100B08002322B4002324C4002326D4002328E4008D
:100B1800232AF400232C0401232E14019307040232
:100B2800938747FE2324F4FE232604FE6F00401714
:100B38008327C4FE0327C4FDB307F70003C70700D4
:100B480093075002631CF7126F0000118327C4FE3D
:100B58000327C4FDB307F70003C707009307300650
:100B68006310F702832784FE138747002324E4FEDB
:100B780083A7070013850700EFF0DFD26F0080110D
:100B88008327C4FE0327C4FDB307F70003C7070084
:100B9800930730076310F702832784FE1387470003
:100BA8002324E4FE83A7070013850700EFF01FD373
:100BB8006F00400E8327C4FE0327C4FDB307F70068
:100BC80003C70700930740066312F702832784FED2
:100BD800138747002324E4FE83A70700930510002A
:100BE80013850700EFF09FD46F00C00A8327C4FE67
:100BF8000327C4FDB307F70003C70700930750078F
:100C08006312F702832784FE138747002324E4FE38
:100C180083A707009305000013850700EFF01FD195
:100C28006F0040078327C4FE0327C4FDB307F700FE
:100C380003C70700930780076310F702832784FE22
:100C4800138747002324E4FE83A7070013850700C2
:100C5800EFF09FDC6F0000048327C4FE9387170022
:100C68002326F4FE8327C4FE0327C4FDB307F70039
:100C780083C70700E39C07EC6F00C0018327C4FE0D
:100C88000327C4FDB307F70083C7070013850700D0
:100C9800EFF05FC18327C4FE938717002326F4FE75
:100CA8008327C4FE0327C4FDB307F70083C70700E3
:100CB800E39007E813000000138507008320C102B2
:100CC800032481021301010567800000130101FE5E
:100CD800232E1100232C8100130401022326A4FED5
:100CE8006F0000028327C4FE83C70700138507002F
:100CF800EFF05FA98327C4FE938717002326F4FE2D
:100D08008327C4FE83C70700E39E07FC1305A000E2
:100D1800EFF05FA793070000138507008320C10148
:100D28000324810113010102678000006340050666
:100D380063C6050613860500930505001305F0FF35
:100D4800630C060293061000637AB6006358C0006D
:100D58001316160093961600E36AB6FE13050000F4
:100D680063E6C500B385C5403365D50093D6160044
:100D780013561600E39606FE678000009382000073
:100D8800EFF05FFB13850500678002003305A04084
:100D980063D80500B305B0406FF0DFF9B305B04084
:100DA80093820000EFF01FF93305A040678002002E
:100DB8009382000063CA0500634C0500EFF09FF7BB
:100DC8001385050067800200B305B040E35805FEAF
:100DD8003305A040EFF01FF63305B04067800200EE
:100DE800600000002003000070000000F002000016
:100DF800020000000D0200000C000000EC010000E1
:100E0800080000004600000010000000400000003C
:100E18000200000030000000080000002800000068
:100E280008000000B800000010000000B00000003A
:100E38000200000082000000060000007E000000A2
:100E480057726F746520257820746F20257800000C
:100E5800600000002003000070000000F0020000A5
:100E6800020000000D0200000C000000EC01000070
:100E780008000000460000001000000040000000CC
:100E880002000000300000000800000028000000F8
:100E980008000000B800000010000000B0000000CA
:100EA8000200000082000000060000007E00000032
:040000058000000077
:00000001FF
